:1000000000000220750300005D0300005F03000094
:1000100061030000630300006503000000000000AE
:100020000000000000000000000000006703000066
:1000300069030000000000006B0300006D03000076
:10004000F91400006F03000045150000C11C0000FA
:10005000C12200006F0300006F030000A115000023
:100060006F0300006F0300006F0300006F030000C8
:100070006F0300006F0300006F0300006F030000B8
:100080006F0300006F0300006F0300006F030000A8
:100090006F0300006F0300006F0300006F03000098
:1000A0006F0300006F0300006F0300006F03000088
:1000B0006F0300006F03000000000000000000005C
:1000C0006F0300006F0300006F0300006F03000068
:1000D000451A00006F0300006F0300006F0300006B
:1000E0006F0300000000000000000000000000009E
:1000F000000000006F030000000000006F0300001C
:1001000000000000000000000000000000000000EF
:1001100000000000000000000000000000000000DF
:1001200000000000000000000000000000000000CF
:1001300000000000000000000000000000000000BF
:1001400000000000000000000000000000000000AF
:10015000000000000000000000000000000000009F
:10016000000000000000000000000000000000008F
:10017000000000000000000000000000000000007F
:10018000000000000000000000000000000000006F
:10019000000000000000000000000000000000005F
:1001A000000000000000000000000000000000004F
:1001B000000000000000000000000000000000003F
:1001C000000000000000000000000000000000002F
:1001D000000000000000000000000000000000001F
:1001E000000000000000000000000000000000000F
:1001F00000000000000000000000000000000000FF
:10020000354936480A1A02D0072291438D463449AF
:1002100034480A1A06D00722914381F30988022242
:1002200082F3148830483149314A00F044F83148AB
:100230003149324A00F03FF831483249324A00F041
:100240003AF832483249334A00F035F832483349F7
:10025000334A00F030F833483349344A00F02BF881
:1002600033483449344A00F026F8344834490022EF
:1002700000F02CF833483449002200F027F83348C6
:100280003349091A082902DB002202604160314A21
:1002900090471F481F49884205D00268043003B4C4
:1002A000904703BCF7E700208646EC46002000217B
:1002B000294A9047FEE7884207D0521A05D00378B2
:1002C00001300B700131013AF9D17047884202D0F8
:1002D00002700130FAE770470000022000E00120C0
:1002E0000000022000000220E83D00000000002085
:1002F00024000020D0030000D003000000340000E0
:10030000E83D0000000000200000002084340000D0
:1003100084340000843400008434000084340000FD
:10032000843400008434000084340000E83D000080
:100330000C3E0000240000202400002024000020A7
:100340004C0900204C0900204C0900204C090020D9
:100350004C2900209D0300002D250000FEE7FEE74C
:10036000FEE7FEE7FEE7FEE7FEE7FEE7FEE7FEE765
:1003700000F002B8FFF7FCBF0F484FF007018843B9
:1003800085460E4880470E48016841F470010160BF
:10039000BFF34F8FBFF36F8FFFF732BF09480A4992
:1003A0000A4A884207D0521A05D0037801300B70F0
:1003B0000131013AF9D1704700000220A92700005D
:1003C00088ED00E0843400000000002000000020E0
:1003D0007047000007B5044B0093044A402300F027
:1003E00032F803B05DF804FBF103000025000020A3
:1003F0002DE9F84388461446B2B10F4B0F4E032542
:10040000002743F00109224608EB0701002002F013
:1004100087F90744241A48B933782BB14FF47A404E
:10042000C847013D02D13570BDE8F8830123337020
:10043000002CE8D1F8E700BF903400002400002031
:10044000704702F09DB9F0B595B01D4616460846B6
:100450000C4600F067FF1A9B0D93CDE90865002557
:100460002B46082205A920460A958DF82C500C959C
:1004700000F074FF079B0293069B03939DF81430D2
:100480008DF8115003F00302012A1DD1BDF814208C
:10049000059DC3F3C203C2F383168DF81030B2007A
:1004A00008230EA9204600F059FFC5F3952508AB97
:1004B0000093324602AB0EA9284600F035FB2046D9
:1004C00000F034FF15B0F0BD022AF8D1BDF8165087
:1004D000C3F3C203C5F389158DF810300827082D22
:1004E0002E4628BF08263B4632460EA9204600F07D
:1004F00035FFAD1B08AB02AA31460EA8374400F009
:1005000077FB002DEBD1DAE708B5FFF79AFF044837
:10051000042100F073FA034B01225A7108BD00BF99
:100520006034000000000020037813F0040216D0AD
:1005300003F00303012B03D0022B09D001207047E5
:100540000A6800880232C0F3831002440A60F5E7AB
:100550000B684288023303EB92130B60EEE7104600
:10056000704700002DE9F04FDFF810A10F4685B06D
:100570000446861C0020154600F0ECFBDAF8042047
:100580003A60DAF8083003F580739B1A0AF21C47C8
:100590000AF583690AF21448B34219D30020002DEA
:1005A00068D004F00F039B0143F0050363F30F00D1
:1005B000DAF80430DAB2033233444AF82200002079
:1005C000CAF8043000F0C8FB012005B0BDE8F08F88
:1005D0000121384600F0E5FB484600F0FAFB4046B2
:1005E00000F0F7FBDAF808000090C0B203300AEB25
:1005F00080006946FFF798FF009B30BBDAB20AEB38
:100600008202D16801919A1C0133DBB20AEB8303A9
:100610000092D3F80CB001F00303012B22D0022B7F
:1006200015D08346404600F0D7FB10B1009BCAF8B6
:1006300008305946384600F0B4FBDAF80830DAF8EA
:10064000042003F580739B1AA6E7D8B2CEE7BDF865
:100650000630C3F3891303334FEA1B4B02EB9303BA
:100660000093DFE7BDF80430C3F383134FEA1B4B5D
:100670001344F5E7A40544F0060099E7380100208B
:10068000064B074810B500221A7000F004FE04461D
:1006900010B9044800F086FE204610BD3801002045
:1006A00070340000CC34000030B50A4C71B10A4AF5
:1006B0000A49121BD20800239A4201D1002030BD02
:1006C00031F82350854202D00133F5E7034654F850
:1006D0003300F4E700340000603400000000002024
:1006E000094B013903EBC000032909D8DFE801F009
:1006F0000A02040604207047007970474079704769
:10070000002070470220704700340000704700004E
:10071000034BD3E90130C31A58425841704700BF18
:10072000380100202DE9FF41FFF7F2FF05460028C0
:1007300040F0E980754CC4F81804BFF34F8FA368EC
:100740000093DBB2033304EB83006946FFF7ECFE52
:10075000009B18B1D4F81824002A5AD0DAB2991C98
:10076000013304EB8202DBB204EB8303D268DB6863
:10077000029302F00303022B0192009154D1BDF8C1
:1007800006306348C3F38917502F3E4628BF5026D2
:1007900006F1080166F38F13C1F30901ADF80630C5
:1007A00000F091FD0546002800F0988000F0BAFDA9
:1007B0000023082201A9284600F0C6FD0099CB437A
:1007C000DBB20133C9B20331B6EB830F4FEA8302C8
:1007D00004EB810125D95FFA82F80823A6EB08060D
:1007E000284600F0B1FDF6B208F10803494903F0CC
:1007F000FC033246284600F0A7FD009B033703EBBD
:1008000097070097D4F81834002B43D1D4F810641C
:1008100053E062689A4294D8A260284604B0BDE8CA
:10082000F08108233246E5E7012B57D1BDF80430AB
:100830003748C3F38311062928BF062161F38913C2
:10084000023101F00F018900ADF8043000F03BFDEA
:100850000546002842D000F065FD0023082201A9CA
:10086000284600F071FD0026BDF80420C2F3831273
:10087000B300964203F10803C4D200994A1CC9B2DE
:100880000331009204EB81010422284600F05CFD54
:100890000136E9E7284600F049FDFFF739FF80F00F
:1008A0000100C5B2B9E7F3685B7923B13368294623
:1008B0001B6830469847F3681E68002EF3D128461F
:1008C00000F034FD304600F045FAD4F818340BB986
:1008D000009BA360002000F03FFADEE7D4F810444C
:1008E00054B90D4B0D480E49C01AC008000440F021
:1008F000020000F05FF8D0E7236820469B68984725
:10090000E3681C68ECE7002587E700BF380100209A
:10091000703400004401002000340000483400001E
:10092000B43400002DE9F34704460E46924601A96F
:10093000012218469946FFF715FE1C4F10B3019D82
:100940004FF00008AA1CC84508EB020125D1184841
:10095000002100F003FA80F31000000440EA144084
:10096000E4006B1C04F03804DBB2EDB244F0010487
:1009700007EB8303033544EA881444EA8624D860ED
:1009800047F825403B781BB1FFF7CCFE0028FBD190
:10099000FFF7BCFE02B0BDE8F087C9B207EB8101EA
:1009A0005AF82830CB6008F10108CCE73801002064
:1009B0005405002000231A46FFF7B4BF07B50123F2
:1009C000019201AAFFF7AEFF03B05DF804FB07B583
:1009D000CDE9002302236A46FFF7A4FF03B05DF8C8
:1009E00004FB1FB5CDE90123069B039301AA032352
:1009F000FFF798FF05B05DF804FB000030B50F4C21
:100A0000D4F8102403460020114631B9D968087182
:100A10004AB9C4F810340A6030BDC9680D798542FE
:100A200006D00968F1E7D26814680C601360F3E738
:100A300001300A28E8D14FF0FF30EDE738010020FF
:100A400038B5084B0125D3F810441D7004B938BDE2
:100A5000E3685D71236820465B689847E3681C681B
:100A6000F4E700BF3801002030B5C38885B00446E4
:100A70000D4633B1144A00921449154A284600F035
:100A800005FA217A05291DD0637A4BB1A088FFF7BA
:100A900027FE104B104953F82020284600F0F6F9A5
:100AA000227A0E4BA08853F8222003920021FFF7F0
:100AB000FBFD039A0A490346284605B0BDE83040CD
:100AC00000F0E4B905B030BDF8340000E0340000B7
:100AD000D834000064350000FD3400008835000083
:100AE0000035000007B503460846197A052911D0DC
:100AF0005B7A2BB1094A0A49019000F0C7F90198C5
:100B00000849019000F0C2F9019803B05DF804EBC8
:100B100000F0B1B9002AF8D0F2E700BFF8340000C5
:100B2000FD3400002D3600002DE9F04385B01F464E
:100B30000C9D002395F80C902B7306460C469046AE
:100B400029463846FFF790FFB8F1060F09D8DFE8CD
:100B500008F00412181F283340003146284600F0E0
:100B600095F9002229463846FFF7BCFF85F80C901E
:100B700005B0BDE8F08322683146284600F086F9CA
:100B8000EFE7D4E900233146284600F07FF9E8E793
:100B9000A36800933146D4E90023284600F076F993
:100BA000DFE7E3680193A36800933146D4E90023AB
:100BB000284600F06BF9D4E723690293E3680193B8
:100BC000A36800933146D4E90023284600F05EF97B
:100BD000C7E76369039323690293E3680193A368FA
:100BE00000933146D4E90023284600F04FF9B8E7D6
:100BF00008292DE9F74F80460E4617461C463CD87B
:100C0000002593F80C901D7319461046FFF72CFF32
:100C1000DFF888A0DFF888B0AE4231D918F8052097
:100C20005946204600F032F90135082DF4D1194912
:100C3000194DDFF870A0204600F028F94FF0000BA6
:100C40005E4522D918F80B207E2A05D8104601925D
:100C500002F022FB019A00B92E225146204600F0F4
:100C600015F90BF1010BBBF1080FE9D10122214667
:100C70003846FFF737FF84F80C9003B0BDE8F08FDB
:100C80005146204600F002F9CEE72946204600F002
:100C9000FDF8E6E7143500001235000010350000BD
:100CA0000A350000163500001FB50021039001AA87
:100CB00044F20100CDE9011100F004F805B05DF83F
:100CC00004FB000038B572B6FFF7BAFEFFF72AFD45
:100CD0000028FBD1104B114C114D1249E41AE408C5
:100CE000240444F00100FFF765FED5F8F030DB077F
:100CF00000D500BE0C4944F00200FFF75BFEBFF3D5
:100D00004F8FEA68094B02F4E0621343EB60BFF3D4
:100D10004F8F00BFFDE700BF0034000048340000E3
:100D200000ED00E09C350000A83500000400FA0545
:100D300072B6024A1368013313607047F005002051
:100D4000034A1368013B136003B962B6704700BFE2
:100D5000F0050020FFF7ECBFFFF7F2BF10B5034628
:100D600053E8000F0A4643E8002494F0000FF7D13F
:100D700010BD10B5034653E8002F42EA010043E8D6
:100D8000000494F0000FF6D110BD10B5034653E8EF
:100D9000000F00EA010243E8002494F0000FF6D1AE
:100DA00010BD10B5034653E8002F02EB010043E8E5
:100DB000000494F0000FF6D110BD10B5034653E8BF
:100DC000002FA2EB010043E8000494F0000FF6D1DD
:100DD00010BD0121FFF7CDBF0021FFF7D6BF10B531
:100DE00090B1D0E9012301689B1ADBB20A60013B94
:100DF000DBB2FF2B026802D10020107110BD116818
:100E00004C1C14600B70F2E70E20F7E738B504466F
:100E10000020FFF79FFF226863681168994213D989
:100E2000481E106011F8013CE568218A01FB03555A
:100E3000A36811791B1ADBB2994200D2137100200A
:100E4000FFF78AFF284638BD0025F8E738B5054684
:100E500000200C46FFF77EFF2A681368591C1160BA
:100E6000E968641A298AB4FBF1F41C70BDE83840C3
:100E70000020FFF771BF826810B504462AB14369AC
:100E80000168006998470023A36010BD0EB403B544
:100E9000039921B104AB01AA019300F06FF802B0ED
:100EA0005DF804EB03B07047826830B40468551CE9
:100EB0008560A154D0E901329A4202D330BCFFF7D9
:100EC000DABF30BC704700002DE9F84F9846DDE9E5
:100ED0000A43154682460F460A464FF00109AA42C8
:100EE0000FD2C14538BFC14613F0010B01D16CB917
:100EF00000240126B8F1010F1BD908F1FF386E4319
:100F0000F8E709F10109B2FBF5F2E8E79B070ED516
:100F1000B8F1000F0CBF30262026A145E9D2013CD4
:100F200031465046FFF7C0FF002CF6D1E0E72026FF
:100F3000F3E7B7FBF6F39D42E1D9DFF83C80B7FB5E
:100F4000F6F3504618F8031006FB1377FFF7ACFFD3
:100F50003346AB42B6FBF5F6F1D2BBF1000F02D03F
:100F60000CB1A14501D3BDE8F88F20215046013CCA
:100F7000FFF79AFFF4E700BFB53500002DE9F74F02
:100F8000054617468846002900F03E8118F8011BE7
:100F900049B92B7B002B00F03781284603B0BDE810
:100FA000F04FFFF768BF252940F0B780002698F87A
:100FB00000302D2B424608F1010823D0302B24D0DD
:100FC0002B2B25D000242A2B02F1010123D13B68D1
:100FD0001A1D1B683A601C440A4613782E2B26D132
:100FE00001324FF0000A104610F8011BA1F1300C3D
:100FF000BCF1090F1DD80A2303FB0A13A3F1300A21
:101000000246F0E746F00106D1E746F00206CEE7D9
:1010100046F00406CBE711F8013CA3F130000928A3
:10102000DBD80A2202FB0434303C0A46CBE74FF0FF
:10103000000A12F8011B01F0FB0068289046F8D066
:10104000782909D86F290CD8632962D022D825299C
:1010500063D0582900F0888098F80030002B95D193
:1010600097E770390829F7D801A353F821F000BF9A
:10107000E311000059100000591000007911000020
:1010800059100000571100005910000059100000BD
:1010900069110000642901D06929DDD13A68D2F8CC
:1010A0000090111D89EAE9723960A2EBE9724FF0F4
:1010B000010B092A35DCD34538BFD3462CB1B9F131
:1010C000000F01DB720700D5013CB30702D5BAF16E
:1010D000000F03D0F00701D44CBB0024B9F1000F7E
:1010E0002DDAC9F100092D212846FFF7DDFE06F0B3
:1010F0000302022A04D1BAF1000F01D11CBB002463
:10110000CDE9004653460A2249462846FFF7DCFE51
:10111000A2E73B681A1D19783A602846FFF7C4FE1B
:101120009AE70A230BF1010BB2FBF3F2C1E7A345E7
:10113000D4D220212846013CFFF7B6FECCE7710748
:10114000D5D52B21D0E7A345DAD230212846013C62
:10115000FFF7AAFED2E73968CDE900460A1D3A60DA
:1011600053460A220968D0E739680A1D3A60CDE97A
:10117000004653461022F5E73B681A1D3A6016F008
:101180000106D3F8009024D1B9F1000F03D04846EE
:1011900002F005F90646B4421DD809F1FF3919F8E5
:1011A000011F00293FF458AF2846FFF77DFEF6E700
:1011B00028460136FFF778FE19F806100029F7D106
:1011C000A642BFF449AF20212846013CFFF76CFE40
:1011D000F6E70026F0E720212846013CFFF764FEF1
:1011E000D9E73B681A1D3A60302128461C68FFF792
:1011F0005BFE78212846FFF757FE00220823CDE941
:1012000000322146102280E703B0BDE8F08F00BF16
:101210002DE9F84FB0F806A04579D2F800B09DF856
:1012200028900AFB05F5043D88460BEB0301A94213
:1012300003F1040488BFA5EB030BB4FBFAF60746E1
:101240000AFB1644C2F800B04EB9AAEB04055D458E
:1012500028BF5D46BBF1000F04D1BDE8F88F3F68A1
:10126000013EF1E7043408EB06003C442A46B9F19C
:10127000000F0DD02146ABEB050B02F012F8DA455A
:101280002E443F6855464FF0000428BF5D46E1E715
:1012900001462046EFE7FFF7A2BDF8B546790146C3
:1012A000721E0546002393422D6803D30024A642F4
:1012B00002D8F8BD0133F6E70F682846FFF7C6FDF0
:1012C00001343946F3E72DE9F843068ACD1C074679
:1012D000FFF79CFD043E35440446B5FBF6F5F0B13E
:1012E0004FF48073EDB28380C680013D0760814674
:1012F0004FF00008A84512D23846FFF787FD064692
:1013000048B163790133637108F10108C9F800003D
:1013100007608146EEE72046FFF7BFFF34462046D0
:10132000BDE8F88301210430FFF73BBD10B5012172
:1013300004460430FFF741FDC0B220B92046BDE8A5
:101340001040FFF7AABF10BD1FB503920022009204
:1013500003AAFFF75DFF05B05DF804FB1FB503921C
:101360000122009203AAFFF753FF05B05DF804FBCA
:1013700008B50020FFF7EEFCF1EE103A23F09F03D2
:10138000E1EE103ABFF35F8F054B4022C3F8842192
:101390000020FFF7E1FC20BF40BF20BF08BD00BF19
:1013A00000E100E0836800225A60C3E904229A60E9
:1013B000DA601A607047000038B5074C051E04F16A
:1013C000080318BF1C4623682BB11A6822605B68AB
:1013D00028469847F7E738BDFC05002020B9054BA3
:1013E00001225A70FFF7E8BF012802D1014A90702C
:1013F000F8E77047F405002038B50C4C23789BB90A
:101400000B486360A3602361E36000F049F8054680
:1014100000F052F801232370064BD3F800340BB1CF
:101420000123A370284638BD8525F5E7F405002083
:10143000DD1300000000014038B5134CA3780546C9
:1014400003F0FF0073B115B16B68012098470020CD
:10145000FFF780FCE3680133E3600020BDE838401B
:10146000FFF77ABCFFF776FC25B1226913463BB93A
:101470002A602561E368002BECD100F02FF8E9E742
:101480009D42F7D01B68F2E7F405002000F1804090
:10149000002382B0036003680193019B02B0704790
:1014A000044A137923B9012110601171184670475D
:1014B0008520704708060020074B1A68D20704D41D
:1014C000C02283F8002301221A604FF080430122DA
:1014D000C3F81825704700BF00E100E008B54FF4DD
:1014E0008270FFF7D3FF4FF080430222C3F804233A
:1014F00001229A6008BD00004FF0804210B5D2F87A
:10150000003153B14FF48070FFF7C0FF0123C2F8E0
:1015100008330B4B00201B6898474FF08042D2F8ED
:10152000043163B14FF48270FFF7B0FF0223C2F8B9
:101530000833034BBDE810401B680120184710BD5D
:1015400008060020014B1B68184700BF100600204A
:1015500038B50B4B98420C4601D0002038BD002016
:10156000FFF7F8FB074B1D7915B901221C601A71B2
:101570000020FFF7F1FB002DEFD01120EEE700BFB8
:10158000002000401006002000F1804000F5E040FF
:10159000002382B0036003680193019B02B070478F
:1015A000F0B5524B524CD3F8043185B0002B3DD0EE
:1015B00094F82E204FF48270FFF7E6FF2AB394F8D8
:1015C0002F3013BB494AD2F80031002B32D04FF4F0
:1015D0008070FFF7D9FF638B94F82D00834250D9B8
:1015E00021891B1A9BB289B26383CB1A616801EB14
:1015F0004303C2F82C36C2F830064FF48270FFF76E
:10160000C3FF3A4B01225A6014E0636802932389B6
:10161000ADF80C30E36800218DF8041033BB23745F
:10162000236801A89847002384F82F3094F82E30BF
:10163000002BC7D12D4BD3F810315BB14FF488701C
:10164000FFF7A2FF0023237402238DF8043001A8C2
:1016500023689847254BD3F81431EBB14FF48A70C7
:10166000FFF792FF0023237405B0F0BD208B608349
:1016700063602081E160002AD2D11C4B01221A60F4
:10168000CEE7BAD1E368012184F82F1013B100210D
:101690006183AEE76383B0E766694FF000470125D9
:1016A000002EE1D0B6FA86F227FA02F34632920013
:1016B00026EA030602F1804303F5E0431B68002B92
:1016C000EED01046A2F58C72FFF75EFFD30882F0D1
:1016D0000402C2F380028DF808308DF804502368AC
:1016E0008DF8092001A89847DAE700BF0070004094
:1016F0001806002038B5204A92F82C300446002BFA
:1017000037D111601D490078C1F8F0056078C1F843
:10171000F4050125E078137482F82D30536182F8C6
:101720002F306FF0004382F82E0082F82C504FF4D7
:101730008270C1F80833FFF727FF4FF48070FFF77E
:1017400023FF4FF48A70FFF71FFFA3780C485B015B
:10175000DBB280F80733802303600223C1F804332F
:1017600092F82E300BB1C1F80453C1F80055002097
:1017700038BD0820FCE700BF1806002000700040BC
:1017800000E100E030B5224B1A7C002A3ED100F186
:101790000C0403EB4402127922B993F82D20013294
:1017A00083F82D2003EB4403CA790C7A8D781A71E3
:1017B0005C714B782D021B0105F4E06503F03003EA
:1017C0002B430D7805F003052B43CD782D0305F44D
:1017D00080552B430D792D0405F4E0252B434D79DD
:1017E00089792D0505F48015090601F080712B43D8
:1017F0000B43010101F1804101F5E0410020C1F8F6
:101800001835C1F81445C1F8102530BD1120FCE78A
:101810001806002070B5324A147C04F0FF03002C37
:101820005CD1304C012503261574C4F80863C4F854
:101830002C16C4F8305692F82D40AC420CD91D46F7
:10184000190101F1804101F5E0410133082BC1F894
:101850001455C1F81055F3D100F10C03000102EB4F
:10186000430300F1804000F5E04019795B79C0F84E
:101870001435C0F810151B4901230B604B6042F270
:101880001073D1F8040108B9013BFAD14FF480700C
:10189000FFF77AFE4FF48270FFF776FE012C11D924
:1018A0000F4800210B0103F1804303F5E0430131B0
:1018B000047F457FC3F814550829C3F8104500F18B
:1018C0000200EFD192F82E10064B29B1032100201F
:1018D000C3F80413107470BD0221F8E71120FAE771
:1018E000180600200070004008B50A4B197C01F072
:1018F000FF0269B902214FF488701974FFF744FEA2
:10190000054B1021C3F804130121D960104608BD0E
:101910001120FCE71806002000700040002343500F
:1019200082B043580193019B02B07047F0B51A4C46
:1019300043791A4D44F8232003EB4303EB5C43BB8C
:1019400090F904408B7802795B01002CDBB21BDB41
:10195000134E371987F800330123640902F01F0280
:1019600003FA02F246F8242003680A88C3F808251F
:1019700043790879C97803EB4303EA1850709170F2
:101980000122EA540020F0BD064C02F00F02A354DD
:10199000EAE70820F7E700BF4C06002048060020D1
:1019A00000E100E014ED00E0036801221A604379D1
:1019B000024A03EB43030221D1547047480600203A
:1019C0002DE9F04105464FF4803400681C4F8C40EF
:1019D000C0F84843C0F8084395F805C00CEB4C0626
:1019E0003E4422F07F4296F8018001F5A8764FEA46
:1019F0004C0E40F82620B8F1000F11D0D0F8048525
:101A0000F4446744A8EB0206904538BF06F1FF1680
:101A1000BA7838BF06F57F46B24201DD0D200CE0F2
:101A20003BB15031890089B2FFF778FF2B68C3F8CA
:101A300004432B680020C3F84443BDE8F08100BF95
:101A4000480600202DE9F041224E234FDFF88C801C
:101A500000244FF48035D7F80433A6F580412B429B
:101A600089B20CD0336853B1C7F848533846C7F829
:101A70000853FFF753FFD8F80030E0B2984701341D
:101A8000042C4FEA450506F10406E4D11248D0F8CB
:101A90000433DA070AD5D0F800313BB14FF4807136
:101AA000FFF73CFF0D4B20461B6898470A48D0F8CB
:101AB00004339B070CD5D0F804314BB14FF482713D
:101AC000FFF72CFF054BBDE8F0411B6805201847C8
:101AD000BDE8F08140410240004002404C06002039
:101AE0001FB503788DF800308388ADF80430836823
:101AF0008DF80630C3688DF8073003690293436997
:101B0000054A0393054B684653F8213052F82110DB
:101B1000984705B05DF804FB5006002058060020E9
:101B2000024B4FF4807043F0010318470036000069
:101B30001F2886BF054A00F01F004FF0A042012376
:101B400003FA00F0C2F80805704700BF0003005018
:101B50002DE9F047154690F80080394A42F82850A0
:101B6000384A42F828304B7B06460C46A3B3086837
:101B7000DFF8D8904FF0A04100F5E07340F20C621E
:101B800041F82320636803F5E073002741F8232020
:101B9000FFF7CEFF6068FFF7CBFF236803F5E07324
:101BA00040F20D6241F82320636803F5E0734FF0C3
:101BB000010A41F82320FFF7B3FF63681F2B8ABF98
:101BC0004A464FF0A04203F01F03D2F8102522FA34
:101BD00003F3DB070BD507BB002D1B4A434608BFA9
:101BE0002A462146301DBDE8F04700F027B923689A
:101BF0001F2B86BF03F01F034A464FF0A0420AFA8C
:101C000003F3C2F80C35FFF78BFF01372068FFF7AD
:101C10008FFFFFF785FF092FCFD163681F2B86BF8A
:101C20000A4903F01F034FF0A041012202FA03F317
:101C3000C1F80C35FFF774FF6068FFF779FFCBE759
:101C40005806002050060020E11A00000003005052
:101C50000023435082B043580193019B02B0704768
:101C60000B7B032B2AD8DFE803F022261A028B68AD
:101C70005A0304D5D0F84C350A699A4207D18B68CB
:101C80005B031BD4D0F84C354A699A4216D0002326
:101C90000622C0F80035C0F8002518467047D0F875
:101CA0004C350A699A42F2D1D0F83C35ECE7D0F8CD
:101CB0004C350A69E9E7D0F83C35FAE7012070476E
:101CC000F0B5594D594CD5F8243187B0FBB14FF4DC
:101CD00092712846FFF7BCFFD5F80431BBB9A36861
:101CE000C5F808330223A360A368C5F80433D5F808
:101CF00060311BB1D5F800329F0503D44A4B012255
:101D00001A625A61012384F82E3007B0F0BDD5F86D
:101D10000431002B50D044484FF48271FFF798FFF4
:101D2000236A5E0609D494F82E3033B93F49FFF791
:101D300097FF80F0010084F82E00236A5D0720D40D
:101D40003B4E0FCE01AD0FC5336837482B604FF4C3
:101D5000B071FFF77DFF4FF4AE71FFF779FF94F894
:101D6000303013B194F82E305BB12F4B0022C3F802
:101D70000022A2602F4AC3F808232F4B0822C3F881
:101D80008021294AD2F8C434C2F8C43498073DD51A
:101D900001238DF8003094F830300BB984F82F30DF
:101DA000236A5B0703D594F82E30002BADD0D4E91D
:101DB000003168469847A8E71B484FF4A471FFF725
:101DC00047FF237B83B91A4F0FCF01AE0FC63B6885
:101DD000336094F83030002BD3D1C5F80032A360C3
:101DE000144BC5F80833C8E74FF40073C5F8003248
:101DF00040F20223A36003F1CE73C5F80833A36851
:101E0000C5F804330123AB602B627EE7590701D587
:101E10000223BEE7DA0701D50323BAE794F82E3090
:101E2000002BB6D00423B4E7003000406006002049
:101E30006C06002002029C0100E100E02DE9F84F51
:101E40000679394D4FF0340A0AFB06FA05EB0A070A
:101E50009B4697F82D3080460C469146002B5FD16B
:101E600032490068FFF774FB00285BD12168637B6F
:101E700087F832301F298CBF01F01F030B4603F592
:101E8000E07388BF2A4AB86098BF4FF0A04240F282
:101E90000C6C87F82F0042F823C06268C7F804B0C2
:101EA0001F2A8CBF02F01F03134687F8300003F58A
:101EB000E07388BF1E4F45F80A9098BF4FF0A047C7
:101EC00047F823C0D8F80030C3F80815C3F80C252C
:101ED000A268C3F82425B9F1000F14D0227B43F384
:101EE000073152010029C3F30733D2B213DB114C7F
:101EF000671887F800230122490903F01F0302FA3B
:101F000003F344F82130342303FB0655012385F8FD
:101F10002D30BDE8F88F084903F00F03CA54F2E7EB
:101F20000820F6E71120F4E760060020C11C00003D
:101F30000003005000E100E014ED00E003680279C6
:101F40000621C3F80015044B342101FB02330222A1
:101F500083F82D20704700BF600600202DE9F8436C
:101F6000DFF8C88290F804900468342606FB0986DE
:101F7000002386F82E30CB6803F06043B3F1005F96
:101F80000D46174603D010263046BDE8F883A64B11
:101F9000C4F8083396F82F3023B1B368C4F804337B
:101FA0001126F1E712F0140F0CBF0123002386F86D
:101FB0002F308E46BEE80F0006F10C0CACE80F0087
:101FC000DEF80030CCF80030C7F3001386F830306C
:101FD00037626B78C4F8883520464FF48271FFF77A
:101FE00037FE4FF49271FFF733FE4FF4B071FFF7F5
:101FF0002FFE4FF4A471FFF72BFE17F0010318BF5B
:102000000123C4F8503517F0020318BF0123C4F8A8
:1020100040352B78032B00F2B580DFE803F084A075
:1020200069022B6903F06043B3F1005FABD14FF459
:102030008073C4F80032EA686B68C4F844254FF432
:10204000A871C4F84835FFF703FE01232362A3609B
:10205000D4F85031002BFBD04FF4A8712046FFF785
:10206000F7FDAB682A69C4F84425C4F84835342321
:1020700003FB09834FF480229A60082300263A0765
:1020800004D42A78032A1CBF0122E250342303FB24
:1020900009F308EB030258F80330002B75D1012532
:1020A000D4F84821D4F80431002B40F08980003A5C
:1020B00018BF0122D4F82431002B00F088804FF49F
:1020C00092712046FFF7C4FDD4F86011D4F80032B5
:1020D00009B1980504D4256265610029E0D0002289
:1020E000D90574D54FF4A4712046FFF7B1FDD7E7A9
:1020F0006B68EA68C4F84425C4F848352B6903F0D6
:102100006042B2F1005F7FF43EAFAA68C4F8343594
:102110004FF48453C4F83825C4F80032342303FB49
:102120000983022212E06B68EA68C4F8442517F0BC
:10213000200FC4F848354FF034030BD04FF48072B1
:10214000C4F8002203FB09834FF480229A60012324
:10215000236292E74FF40072C4F80022DFE76B6855
:10216000EA68C4F83425C4F838354FF48053C4F80D
:102170000032342303FB098302229A600123236285
:1021800000237BE70823072679E77B0744BF00236A
:1021900093607D0606D4342303FB09839A6842F0DA
:1021A00002029A60342303FB0988D8F8083043F40C
:1021B0000073C8F80830D8F80830C4F80433E3E6F0
:1021C0004FF482712046FFF743FD012272E7002A97
:1021D0003FF466AF3421D4F8C434C4F8C43401FBEE
:1021E0000982002082F82F0093B113F0010F14BF71
:1021F0004FF40246032648F2012213F0020F18BFE3
:10220000164613F0040F48F2022318BF1E46BBE621
:102210007B063FF5B9AE09FB01812046FFF720FDA3
:10222000002808BF0326AFE602029C0160060020DA
:1022300010B586B00024CDE902349DF820308DF829
:102240000510A342CDE9042401A914BF202222468F
:102250008DF80440FFF782FE06B010BD10B586B0C1
:10226000012402930023CDE903328DF805101A46AC
:1022700001A98DF804400593FFF770FE06B010BD6C
:102280001F2886BF054A00F01F004FF0A04201231F
:1022900003FA00F0C2F80C05704700BF00030050BD
:1022A0001F2886BF054A00F01F004FF0A0420123FF
:1022B00003FA00F0C2F80805704700BF00030050A1
:1022C0004FF0402307B5D3F81821DAB10F490022A7
:1022D000C3F81821C87FD3F818310193FF28019B58
:1022E00003D08B7F5BB1FFF7CBFF00234B770B72E3
:1022F000D1E90031064803B05DF804EB1847FFF759
:10230000CFFFF2E703B05DF804FB00BF94060020A6
:102310009C0600201F2886BF00F01F00044B4FF0D2
:10232000A04300F5E070032243F82020704700BF6F
:10233000000300500378022B09D10548054B0649DC
:10234000C01AC008000440F00300FEF733BB70471A
:1023500048340000003400001036000013B5002897
:1023600045D1374A374CA41A374A1278E408240476
:10237000002A3ED00DF10601ADF80600FFF74AFA3B
:10238000024600283BD0314944F00100FEF716FB1D
:102390004FF0A042D2F80435D94301F4005103F4C0
:1023A0000053C2F80815C2F80C35294A13680133E6
:1023B0001360284B1B780BB100F09CFD4FF0A0423E
:1023C0002548D2F80435D94301F4804103F4804311
:1023D000C2F80815C2F80C35002101232022FFF7AE
:1023E000EFFA08B1FEF760FC1C4B01229A6002B0C4
:1023F00010BD1B4944F00200FEF7DCFAD9E7BDF935
:1024000006209FED187A184907EE902AF8EEE76A41
:1024100044F00300C6EE877A9FED147A67EE877A60
:102420009FED137A67EE877AB1EE087A67EE877AC6
:10243000FDEEE77A17EE903AFEF7C9FAA8E700BF7B
:102440000034000048340000C00600203036000090
:10245000BC060020B8060020CC3600000040024038
:102460005336000000F07F457F3600009A99193FEF
:1024700000007A444FF0A0430222C3F808277047B7
:102480001FB501238DF8033002238DF8003000249E
:1024900006231B498DF8014068468DF80230FFF78E
:1024A00029F908B1FEF700FC02238DF8083001A9D4
:1024B000012300208DF807408DF806408DF8094073
:1024C0008DF80B308DF80C408DF804408DF80540E8
:1024D000FFF758F908B1FEF7E7FB0A480A4B0B492A
:1024E000C01AC008000440F00300FEF763FAFFF7CB
:1024F000FBF90028FBD1064B01221A7004B010BD75
:1025000035230000483400000034000094360000F9
:10251000C0060020002108B50846FEF7B1F808B152
:10252000FEF7C2FBBDE80840FDF7EEBF13B5002182
:102530000124013120295BD14FF0A0434FF4F03248
:10254000C3F808250022C3F80C254FF08043012270
:10255000C3F878252B4C2C4B2C49E41AE4082404AE
:1025600044F003042046FEF725FAFFF7D3FFFFF7F8
:1025700081FFFEF741FF08B1FEF796FB0020FEF752
:102580005BFF00F043FD2820FFF7C4FE204B4FF413
:102590008072C3F8082500F0CBF940B11D492046F0
:1025A000FEF708FA00F056FA1B4B01221A70FFF7EB
:1025B00067FF40F2FF33194A1948ADF80030694609
:1025C000FFF7B4F908B1FEF76FFB1548012320228D
:1025D0000021FFF7F5F908B1FEF766FB1048FFF799
:1025E000E3F9FEF79FF80028FBD1FEF7C1FEF8E7FC
:1025F00004FA01F313F4F03F9BD00846FFF78AFE7C
:1026000097E700BF4834000000340000B2360000F5
:1026100000030050BE360000B80600205D23000015
:10262000CC3600000369C26893429CBF80681B18C7
:10263000013B981A70472DE9F843D0E9029405460A
:10264000A9EB04084068904520440F46144404D97F
:1026500000F027FEEC60BDE8F8834246A4EB0904D5
:1026600000F01FFE6868224607EB0801F0E72DE93D
:10267000F843C5680646894617464FF00008346996
:10268000B3687068A54228BFE418013C621B5C1B5C
:10269000BC4228BF3C46944228BF144649462844C1
:1026A000224600F0FEFDB3682544AB4208BF00257A
:1026B0003F1BA044A144F560E1D14046BDE8F8834A
:1026C00010B5114C114AA2610223C4E90433104B26
:1026D000E361A2644FF400730E4A0F492362E2647F
:1026E00000231022E01DA3626362E362A3656365B9
:1026F000E365226500F031FE0849204600F02DFE1A
:102700002023A37110BD00BFC4060020D4360000F2
:102710004C0700203C070020DD360000E1360000B9
:1027200070B5164B182400FB04451D4404FB003310
:102730001646DC6A012C0ED0022C18D0E4B92846CB
:10274000FFF770FF864204D832462846FFF773FF32
:102750003446204670BD2846FFF764FF8642344663
:1027600028BF044622462846FFF765FFF1E72846C2
:10277000BDE87040FFF77BBF0024EAE7C4060020F5
:10278000FFF79EBF4FF08053D3F83001A0F10D0347
:102790005842584170470000024AD2F80034002BDA
:1027A000FBD0704700E0014010B5FFF7EBFF40B1F0
:1027B0004FF080430022C3F80C21C3F81021C3F866
:1027C0003825FFF7DFFF002846D04FF08052514BED
:1027D000D2F80414C3F82015D2F80814C3F824154D
:1027E000D2F80C14C3F82815D2F81014C3F82C151D
:1027F000D2F81414C3F83015D2F81814C3F83415ED
:10280000D2F81C14C3F84015D2F82014C3F84415AC
:10281000D2F82414C3F84815D2F82814C3F84C157C
:10282000D2F82C14C3F85015D2F83014C3F854154C
:10283000D2F83414C3F86015D2F83814C3F864150C
:10284000D2F83C14C3F86815D2F84014C3F86C15DC
:10285000D2F84424C3F87025FFF794FF48B14FF035
:102860008043D3F80024D20744BF6FF00102C3F8BD
:102870000024294AD2F8883043F47003C2F8883023
:10288000BFF34F8FBFF36F8F4FF08053D3F83021DA
:102890000D2A0ED1D3F83431022B02D81F4AD35C53
:1028A0003BB14FF01023D3F808224FF08043C3F818
:1028B00058254FF01023D3F80022002A03DBD3F869
:1028C0000432002B22DA164901234FF01020C1F800
:1028D00004351224FFF760FFC0F80042FFF75CFFE9
:1028E000C0F80442FFF758FF0023C1F80435FFF792
:1028F00053FFBFF34F8F08490A4BCA6802F4E062E6
:102900001343CB60BFF34F8F00BFFDE7064B074A71
:102910001A6010BD00C0004000ED00E0E836000085
:1029200000E001400400FA05080000200090D003F8
:1029300073B5254B254C2649E41AE408240444F0D9
:1029400003063046FEF736F8FDF7ECFE0028FBD113
:102950008DF807000DF10701922000F003FC0546F9
:1029600050B91C4944F00100FEF724F8FDF7DAFEE7
:102970000028FBD1002518E09DF8072016493046B5
:10298000FEF71CF8FDF7CEFE0028FBD19DF80730BE
:1029900003F0FC03242B0BD1104939223046FEF7FB
:1029A0000DF8FDF7BFFE0028FBD1284602B070BD30
:1029B0000B49242244F00200FEF709F8FDF7B2FEAD
:1029C0000028FBD1D6E700BF0034000048340000E7
:1029D000EB360000023700002137000035370000D9
:1029E0005237000013B504460DF10701802000F0B6
:1029F000B9FB9DF8073023F0010343EA040180206E
:102A00008DF8071000F086FB02B010BD2DE9B8412B
:102A100080468120174600F07DFBF9B20546CA20AA
:102A200000F078FB390A0540CB2000F073FBECB2D4
:102A300004400021A92000F06DFB41460440AA207B
:102A400000F068FB30210440AF2000F063FB204021
:102A5000BDE8B88108B50A480A4B0B49C01AC0083E
:102A6000000440F00300FDF7A5FF084B012018709B
:102A7000BDE8084040F2E7322321FFF7C7BF00BF9F
:102A80004834000000340000863700000C000020AD
:102A900013B504460DF10701802000F063FB9DF99A
:102AA0000710002C14BF0223002301F0FD0119437D
:102AB00080208DF8071000F02DFB02B010BD07B587
:102AC00000230DF10701A3208DF8073000F04AFB29
:102AD0009DF80700C0F3801003B05DF804FB000010
:102AE00070B5041E04D1FFF7EAFF0028FBD070BDCB
:102AF000FDDD084E002546F0010603E04FF47A4064
:102B0000B0470135FFF7DBFF0028F0D1A542F5D330
:102B1000EDE700BF603A000037B500230DF1070173
:102B200080208DF8073000F01DFB9DF807108020F5
:102B300041F010018DF8071000F0ECFA044670B176
:102B40004FF47A750DF10701802000F00BFB9DF822
:102B50000730DB0604D5013DADB2002DF2D10024D3
:102B6000204603B030BD08B53021002000F0D2FA75
:102B70000121084600F0CEFA0021022000F0CAFA36
:102B80000021032000F0C6FA0021042000F0C2FA60
:102B90004221052000F0BEFA0021062000F0BAFA1A
:102BA0000021072000F0B6FA5021082000F0B2FA08
:102BB0000021092000F0AEFA00210A2000F0AAFA54
:102BC00000210B2000F0A6FA20210C2000F0A2FA30
:102BD00004210D2000F09EFA00210E2000F09AFA48
:102BE00030210F2000F096FA0121102000F092FA17
:102BF0005021112000F08EFA0021122000F08AFAF4
:102C0000BDE808400621132000F084BA002108B571
:102C1000084600F07FFA0021012000F07BFA002135
:102C2000022000F077FA4021032000F073FA02211D
:102C3000042000F06FFA0021052000F06BFA10214B
:102C4000062000F067FA0321072000F063FA502104
:102C5000082000F05FFA1021092000F05BFA032140
:102C60000A2000F057FA00210B2000F053FA00214F
:102C70000C2000F04FFA00210D2000F04BFA242127
:102C80000E2000F047FA00210F2000F043FA002147
:102C9000102000F03FFA5021112000F03BFA0021F3
:102CA000122000F037FABDE808400621132000F09A
:102CB00031BA13B5002304460DF10701AF208DF89A
:102CC000073000F04FFA9DF8073023F0180343EA6D
:102CD000C401C9B2AF208DF8071000F01BFA02B092
:102CE00010BD10B504460020FFF7D2FE0220FFF70A
:102CF000E0FF2CB1FFF737FFBDE81040FFF70CBF36
:102D0000FFF784FFF8E70000F0B5054685B0012025
:102D1000FFF768FE0120FFF7E4FF0120FFF7B8FE90
:102D20000020FFF7DDFE0023CDE90133039301AA64
:102D30000C239521392000F0A7F9044660B92248F8
:102D4000224B2349C01AC008000440F00100FDF7DF
:102D500031FE204605B0F0BD01AFAB1E05F10A06FD
:102D60003946487811F8022B42EA002223F8022F54
:102D70009E42F6D10020FFF7B4FF0120FFF788FE46
:102D80000020FFF7ADFE0C2301AA9521392000F0A9
:102D90007BF9044630B90C480C4B0E49C01AC008E8
:102DA0000004D2E733461635797817F8022B42EA49
:102DB000012223F8022F9D42F6D10020FFF768FE82
:102DC0000020FFF70FFEC4E7483400000034000085
:102DD00092370000BA37000008B560B93648374B63
:102DE0003749C01AC008000440F00100FDF7E2FDB9
:102DF0004FF0FF3008BD334B1A780A2A06D92E4807
:102E00002E4B3149C01AC0080004EDE70388DFEDFE
:102E10002F6ADFED2F7A07EE103A4388B8EEC77AB3
:102E2000E7EE267A07EE103ADFED2A6A8388B8EEDD
:102E3000C77AE7EE267A07EE103ADFED276AC388F5
:102E4000B8EEC77AE7EE267A07EE103ADFED236A8E
:102E50008389B8EEC77AE7EE267A07EE103ADFEDFF
:102E6000206AC389B8EEC77AE7EE267A07EE103AF1
:102E7000DFED1C6A038AB8EEC77AE7EE267A07EE22
:102E8000103ADFED196A438AB8EEC77AE7EE267A80
:102E900007EE103ADFED156A154BB8EEC77A03EB73
:102EA0008203E7EE267AD3ED006A87EEA67AFDEE7E
:102EB000C77A17EE900A9DE74834000000340000FE
:102EC000E73700000C000020213800003E4C9740FE
:102ED000AEB6F5BFD5771ABFC464C2BF1B17ED3EAF
:102EE0008037293FBA61D6BF41524A3F631D68BE51
:102EF000683A000010B586B018220021684600F03C
:102F0000F9F96846FFF700FF304C314BE41AE4084A
:102F10002404002853D044F00304BDF800202D49B8
:102F20002046FDF74BFDBDF802202B492046FDF75A
:102F300045FDBDF8042029492046FDF73FFDBDF8B9
:102F4000062027492046FDF739FDBDF80C2025490C
:102F50002046FDF733FDBDF80E2023492046FDF73E
:102F60002DFDBDF8102021492046FDF727FDBDF8B5
:102F700012201F492046FDF721FDBDF808201D49FC
:102F80002046FDF71BFDBDF80A201B492046FDF732
:102F900015FDBDF8142019492046FDF70FFDBDF8B9
:102FA000162017492046FDF709FD6846FFF714FF74
:102FB000144902462046FDF701FD06B010BD124936
:102FC00044F00200FDF7F6FCF7E700BF48340000CC
:102FD00000340000583800007E380000A23800009D
:102FE000CC380000F13800001D3900004A390000DB
:102FF0007039000093390000BB390000DD39000052
:10300000053A0000273A0000363A000030B5174B69
:10301000174C1849E41AE408240444F0030585B069
:103020002846FDF7C7FC13221123CDE900234FF0FA
:10303000CD610223CDE9021300231A460E486946EA
:10304000FEF786FD024620B10C4944F00100FDF771
:10305000B5FC0B48FEF772FF0A492846FDF7AAFCAB
:10306000FDF760FB0028FBD105B030BD0034000047
:1030700048340000943A0000983B00009D3A00005C
:103080009C3B0000AB3A00002DE9FF4100278DF882
:103090000F10054601469046194800971E460DF14F
:1030A0000F020123FFF7C4F8044680B1154B164800
:1030B0009DF80F201549C01AC008000440F0010017
:1030C0002346FDF784FC384604B0BDE8F0810C4887
:1030D000F3B242462946FFF7C1F878B1094B0A4DD1
:1030E0000090ED1AED082D0445F001009DF80F3019
:1030F00007493246FDF775FC2046E5E70120E3E786
:103100009C3B00000034000048340000BD3A000041
:10311000F33A00007FB5002506468DF80C008DF8C7
:103120000D100C480095022303AA3921FFF780F8FF
:1031300070B1094B094C0A49E41AE4082404034617
:10314000324644F00100FDF742FC284604B070BD51
:103150000120FBE79C3B00000034000048340000E5
:10316000243B00007FB500268DF80F000D4619485E
:10317000009601230DF10F023921FFF759F804469B
:1031800078B1154B15489DF80F201549C01AC00895
:10319000000440F001002346FDF719FC304604B05E
:1031A00070BD0C4801232A463921FFF757F870B14A
:1031B000094B0A4D9DF80F200A49ED1AED082D0420
:1031C000034645F00100FDF702FC2046E7E7012039
:1031D000E5E700BF9C3B00000034000048340000DD
:1031E0004B3B00006D3B00007F2805D8034B185C6B
:1031F000034B5B5C1840704700207047B43B0000F5
:10320000343C0000A0F16103192B98BF20387047AF
:10321000A0F14103192B98BF203070477F2805D8B3
:10322000034B185C034B5B5C1840704700207047F1
:10323000B43B0000343C0000A0F16103192B98BF9F
:1032400020387047A0F14103192B98BF20307047F8
:103250007F299ABF017001206FF02E0070475AB18C
:103260000A787F2A0AD800B10260002119605960EB
:10327000501A18BF01207047002070476FF02E00D1
:103280007047000008B5034B5B689B681B68984754
:1032900008BD00BF1000002008B50921FFF7F2FFAC
:1032A00008BD844640EA010313F0030F18D1844699
:1032B000202A0BD32DE9F007B1E8F807A0E8F807BA
:1032C000A2F12002202AF7D2BDE8F007042A07D392
:1032D00051F8043B40F8043BA2F10402042AF7D25F
:1032E000002A05D011F8013B00F8013B013AF9D161
:1032F000604670478446002A2DD010F0030F04D09A
:1033000000F8011B013A26D0F7E7C9B241EA0121D2
:1033100041EA0141202A12D3A2F120022DE9F00353
:103320000B460C460D460E460F4688468946A0E8D9
:10333000FA03203AFBD2BDE8F00320320BD0042A76
:1033400005D340F8041B043A05D0042AF9D200F84A
:10335000011B013AFBD160467047024610F0030F93
:1033600016D111F0030F13D12DE9F0004FF0013702
:103370004FF0803351F8044BA4EB070525EA040510
:103380001D4002D142F8044BF4E7A1F10401F0BC66
:1033900011F8013B02F8013B002BF9D1704700F115
:1033A000010110F0030F11D010F8012B002A23D0D7
:1033B00010F0030F0AD010F8012B002A1CD010F0D7
:1033C000030F03D010F8012B002A15D02DE970004F
:1033D0004FF001324FF0803350F8044BA4EB02055C
:1033E00025EA04051D4000D1F6E7A0F1040070BCF9
:1033F00010F8012B002AFBD1A0EB01007047000060
:10340000D435000000000000DA35000000000000A4
:10341000DE35000000000000F33500000000000071
:10342000E2350000000000000B3600000000000044
:103430000636000000000000E83500000000000033
:10344000ED35000000000000C5340000000003035B
:10345000CE35000000000000C5350000000000006F
:103460009834000000000000A43400000000002098
:10347000680000203001002038010020700000208A
:043480001800000030
:103484000000000000000000000000000338FDD828
:1034940070470000D503000041040000D103000080
:1034A4007274745F6C6F675F6261636B656E6400F6
:1034B4004261636B656E647320666C7573686564E2
:1034C4000061707000000000580500207F000000BB
:1034D400D80500201B5B313B33316D0025734C6FE5
:1034E40067732064726F70706564202825642925D1
:1034F400730D0A001B5B306D002573003C25733E81
:103504002025733A20002025303278002020200026
:103514007C002563001B5B313B33306D001B5B314A
:103524003B33326D001B5B313B33336D001B5B312E
:103534003B33346D001B5B313B33356D001B5B311A
:103544003B33366D001B5B313B33376D0077617263
:103554006E696E6700696E666F0064656275670008
:10356400F834000019350000D8340000213500007B
:10357400293500003135000039350000413500009F
:103584004935000000000000A2350000513500005C
:10359400593500005E350000466174616C20657227
:1035A400726F720053797374656D207265736574FC
:1035B40000303132333435363738394142434445AB
:1035C400467077725F6D676D7400636C6F636B0038
:1035D400434C4F434B005050490050525300534109
:1035E4004144430055415254005541525445005200
:1035F4005443000000000000000000000338FDD820
:1036040070475457494D005350494D00534141446C
:10361400432063616C6962726174696F6E20636FC9
:103624006D706C6574652021200D0A00534141447E
:10363400432073616D706C6520636F6E7665727381
:10364400696F6E206661696C65643A202564005375
:1036540041414443206E6F7420696E697469616CE2
:10366400697A65642E20536B697070696E672052A5
:1036740054432073616D706C652E0053616D706CE2
:10368400653A20256420282564206D56290D0A00FA
:1036940053414144432063616C6962726174696F90
:1036A4006E207374617274696E672E2E2E004D61E4
:1036B400696E20496E6974732E0061733733343137
:1036C400204F4B2E00000000004002402400040064
:1036D4005465726D696E616C0052545400534547D1
:1036E4004745520000000154455354204153373399
:1036F400343120434F4E4E454354494F4E004661AA
:10370400696C656420746F20726561642057484F4A
:10371400414D49207265676973746572004153377E
:103724003334312057484F414D493A203078257879
:1037340000415337333431207375636365737366A3
:10374400756C6C7920646574656374656400556E8A
:1037540065787065637465642057484F414D49200E
:10376400726573706F6E73652E204578706563742F
:10377400656420307825782C20676F742030782594
:10378400780061733733343120496E6974004661BF
:10379400696C656420746F2072656164206368617C
:1037A4006E6E656C20646174612066726F6D204179
:1037B4005337333431004661696C656420746F207B
:1037C400726561642068696768206368616E6E650C
:1037D4006C20646174612066726F6D2041533733CD
:1037E4003431006173373334315F63616C63756CFA
:1037F4006174655F7061725F66726F6D5F6368614B
:103804006E6E656C733A204E554C4C206368616E45
:103814006E656C5F72656164696E677300617337AE
:103824003334315F63616C63756C6174655F7061BF
:10383400725F66726F6D5F6368616E6E656C733A1A
:1038440020496E76616C6964206761696E20696ED7
:1038540064657800415337333431204368616E6EB8
:10386400656C20463120283431356E6D2C20566924
:103874006F6C6574293A2025750041533733343110
:10388400204368616E6E656C2046322028343435DE
:103894006E6D2C20426C7565293A202575004153C4
:1038A40037333431204368616E6E656C20463320B3
:1038B400283438306E6D2C20426C75652D47726546
:1038C400656E293A2025750041533733343120433E
:1038D40068616E6E656C20463420283531356E6D16
:1038E4002C20477265656E293A20257500415337AF
:1038F400333431204368616E6E656C204635202870
:103904003535356E6D2C20477265656E2D59656CA5
:103914006C6F77293A2025750041533733343120B1
:103924004368616E6E656C20463620283539306EEA
:103934006D2C2059656C6C6F772D4F72616E6765C5
:10394400293A2025750041533733343120436861C7
:103954006E6E656C20463720283633306E6D2C2011
:103964004F72616E6765293A2025750041533733DC
:103974003431204368616E6E656C204638202836E9
:1039840038306E6D2C20526564293A20257500412B
:103994005337333431204368616E6E656C20434C79
:1039A4004541525F4C20283338302D373030206E5B
:1039B4006D293A202575004153373334312043684B
:1039C400616E6E656C204E49525F4C20283931304F
:1039D400206E6D293A202575004153373334312048
:1039E4004368616E6E656C20434C4541525F4820CC
:1039F400283338302D373030206E6D293A20257524
:103A040000415337333431204368616E6E656C2056
:103A14004E49525F482028393130206E6D293A20B2
:103A2400257500415337333431205061723A2025D3
:103A34006400415337333431206368616E6E656CC2
:103A44002072656164206661696C65642E00000003
:103A54000000000000000000000000000338FDD852
:103A6400704700000000003F0000803F000000405D
:103A7400000080400000004100008041000000423E
:103A84000000804200000043000080430000004426
:103A940049324320494E4954004932432045727209
:103AA4006F723A2025640049324320494E4954201C
:103AB400434F4D504C455445004661696C65642044
:103AC400746F2073657420726567697374657220FE
:103AD40030782530325820666F72206D756C7469A9
:103AE4002D6279746520726561643A20256400460C
:103AF40061696C656420746F20726561642025645B
:103B04002062797465732066726F6D2072656769CF
:103B140073746572203078253032583A2025640059
:103B24004661696C656420746F20777269746520DE
:103B3400746F2072656769737465722030782530FC
:103B440032583A202564004661696C656420746FBC
:103B540020736574207265676973746572203078A8
:103B6400253032583A202564004661696C6564202A
:103B7400746F20726561642066726F6D2072656770
:103B84006973746572203078253032583A20256480
:103B940000000000000000000030004000000000B1
:103BA4000100000043000000504F5349580000003A
:103BB4002020202020202020206828282828202099
:103BC40020202020202020202020202020202020F1
:103BD40048101010101010101010101010101010A9
:103BE4008484848484848484848410101010101049
:103BF40010818181818181010101010101010101A2
:103C04000101010101010101010101101010101055
:103C14001082828282828202020202020202020272
:103C2400020202020202020202020210101010201A
:103C34000007032004170201085710408000000009
:103C4400A83B0000AC3C0000C03D000053756E0072
:103C54004D6F6E00547565005765640054687500B7
:103C64004672690053617400000000004A616E00EE
:103C7400466562004D617200417072004D617900C9
:103C84004A756E004A756C00417567005365700093
:103C94004F6374004E6F76004465630000000000BB
:103CA400414D00504D000000E43D0000E03D0000A7
:103CB400E03D0000E03D0000E03D0000E03D00008C
:103CC400E03D0000E03D0000E03D0000E03D00007C
:103CD400FFFFFFFFFFFFFFFFFFFFFFFFFFFF0000EE
:103CE400203D0000503C00005C3D0000703C0000A2
:103CF400A43C0000043D0000B43D0000103D000061
:103D0400256D2F25642F25790000000025612025CD
:103D140062202565202554202559000053756E64C2
:103D24006179004D6F6E64617900547565736461E7
:103D340079005765646E65736461790054687572BF
:103D440073646179004672696461790053617475C2
:103D540072646179000000004A616E7561727900D5
:103D64004665627275617279004D617263680041E3
:103D74007072696C004D6179004A756E65004A7510
:103D84006C79004175677573740053657074656D63
:103D9400626572004F63746F626572004E6F766580
:103DA4006D62657200446563656D62657200000052
:103DB40025483A254D3A255300000000E93100001A
:103DC40005320000113200001D32000039320000BB
:103DD40045320000513200005F3200000000000054
:043DE4002E000000AD
:103DE80000000000FF0000000090D0030900000060
:103DF800443C0000443C0000443C0000443C0000BB
:043E0800443C000036
:040000030000037581
:00000001FF
