:1000000000000220750300005D0300005F03000094
:1000100061030000630300006503000000000000AE
:100020000000000000000000000000006703000066
:1000300069030000000000006B0300006D03000076
:10004000011500006F0300004D150000C91C0000E1
:10005000692300006F0300006F030000A915000072
:100060006F0300006F0300006F0300006F030000C8
:100070006F0300006F0300006F0300006F030000B8
:100080006F0300006F0300006F0300006F030000A8
:100090006F0300006F0300006F0300006F03000098
:1000A0006F0300006F0300006F0300006F03000088
:1000B0006F0300006F03000000000000000000005C
:1000C0006F0300006F0300006F0300006F03000068
:1000D0004D1A00006F0300006F0300006F03000063
:1000E0006F0300000000000000000000000000009E
:1000F000000000006F030000000000006F0300001C
:1001000000000000000000000000000000000000EF
:1001100000000000000000000000000000000000DF
:1001200000000000000000000000000000000000CF
:1001300000000000000000000000000000000000BF
:1001400000000000000000000000000000000000AF
:10015000000000000000000000000000000000009F
:10016000000000000000000000000000000000008F
:10017000000000000000000000000000000000007F
:10018000000000000000000000000000000000006F
:10019000000000000000000000000000000000005F
:1001A000000000000000000000000000000000004F
:1001B000000000000000000000000000000000003F
:1001C000000000000000000000000000000000002F
:1001D000000000000000000000000000000000001F
:1001E000000000000000000000000000000000000F
:1001F00000000000000000000000000000000000FF
:10020000354936480A1A02D0072291438D463449AF
:1002100034480A1A06D00722914381F30988022242
:1002200082F3148830483149314A00F044F83148AB
:100230003149324A00F03FF831483249324A00F041
:100240003AF832483249334A00F035F832483349F7
:10025000334A00F030F833483349344A00F02BF881
:1002600033483449344A00F026F8344834490022EF
:1002700000F02CF833483449002200F027F83348C6
:100280003349091A082902DB002202604160314A21
:1002900090471F481F49884205D00268043003B4C4
:1002A000904703BCF7E700208646EC46002000217B
:1002B000294A9047FEE7884207D0521A05D00378B2
:1002C00001300B700131013AF9D17047884202D0F8
:1002D00002700130FAE770470000022000E00120C0
:1002E0000000022000000220A04A000000000020C0
:1002F000E00F0020D0030000D00300007C4000008D
:10030000A04A000000000020000000200041000082
:1003100000410000004100000041000000410000D9
:10032000004100000041000000410000A04A000020
:10033000805A0000E00F0020E00F0020E00F0020B6
:10034000A9210020AC210020B0210020B0210020F4
:10035000B04100209D030000A9280000FEE7FEE751
:10036000FEE7FEE7FEE7FEE7FEE7FEE7FEE7FEE765
:1003700000F002B8FFF7FCBF0F484FF007018843B9
:1003800085460E4880470E48016841F470010160BF
:10039000BFF34F8FBFF36F8FFFF732BF09480A4992
:1003A0000A4A884207D0521A05D0037801300B70F0
:1003B0000131013AF9D1704700000220112B0000F1
:1003C00088ED00E000410000000000200000002057
:1003D00000487047A42100207047000007B5044B77
:1003E0000093044A402300F032F803B05DF804FBA8
:1003F000F9030000E10F00202DE9F8438846144678
:10040000B2B10F4B0F4E0325002743F001092246DE
:1004100008EB0701002002F037FB0744241A48B913
:1004200033782BB14FF47A40C847013D02D1357083
:10043000BDE8F88301233370002CE8D1F8E700BF52
:1004400000410000E00F0020704702F04DBBF0B506
:1004500095B01D46164608460C4600F067FF1A9BED
:100460000D93CDE9086500252B46082205A92046F5
:100470000A958DF82C500C9500F074FF079B0293A1
:10048000069B03939DF814308DF8115003F003027E
:10049000012A1DD1BDF81420059DC3F3C203C2F388
:1004A00083168DF81030B20008230EA9204600F004
:1004B00059FFC5F3952508AB0093324602AB0EA950
:1004C000284600F035FB204600F034FF15B0F0BDA3
:1004D000022AF8D1BDF81650C3F3C203C5F389153B
:1004E0008DF810300827082D2E4628BF08263B46D9
:1004F00032460EA9204600F035FFAD1B08AB02AA1C
:1005000031460EA8374400F077FB002DEBD1DAE737
:1005100008B5FFF79AFF0448042100F073FA034B73
:1005200001225A7108BD00BFDC400000000000201D
:10053000037813F0040216D003F00303012B03D059
:10054000022B09D0012070470A6800880232C0F3EC
:10055000831002440A60F5E70B684288023303EB1C
:1005600092130B60EEE71046704700002DE9F04F44
:10057000DFF810A10F4685B00446861C0020154602
:1005800000F0ECFBDAF804203A60DAF8083003F502
:1005900080739B1A0AF21C470AF583690AF2144811
:1005A000B34219D30020002D68D004F00F039B0143
:1005B00043F0050363F30F00DAF80430DAB20332D4
:1005C00033444AF822000020CAF8043000F0C8FB87
:1005D000012005B0BDE8F08F0121384600F0E5FBB1
:1005E000484600F0FAFB404600F0F7FBDAF8080056
:1005F0000090C0B203300AEB80006946FFF798FF15
:10060000009B30BBDAB20AEB8202D16801919A1CDE
:100610000133DBB20AEB83030092D3F80CB001F094
:100620000303012B22D0022B15D08346404600F055
:10063000D7FB10B1009BCAF808305946384600F085
:10064000B4FBDAF80830DAF8042003F580739B1A5B
:10065000A6E7D8B2CEE7BDF80630C3F3891303335B
:100660004FEA1B4B02EB93030093DFE7BDF8043026
:10067000C3F383134FEA1B4B1344F5E7A40544F07F
:10068000060099E7F4100020064B074810B5002239
:100690001A7000F004FE044610B9044800F086FE0B
:1006A000204610BDF4100020EC4000003C4100004A
:1006B00030B50A4C71B10A4A0A49121BD20800230C
:1006C0009A4201D1002030BD31F82350854202D03A
:1006D0000133F5E7034654F83300F4E77C400000AB
:1006E000DC40000000000020094B013903EBC00092
:1006F000032909D8DFE801F00A0204060420704744
:100700000079704740797047002070470220704799
:100710007C40000070470000034BD3E90130C31A4E
:1007200058425841704700BFF41000202DE9FF41A6
:10073000FFF7F2FF0546002840F0E980754CC4F849
:100740001804BFF34F8FA3680093DBB2033304EBAD
:1007500083006946FFF7ECFE009B18B1D4F818241B
:10076000002A5AD0DAB2991C013304EB8202DBB2C0
:1007700004EB8303D268DB68029302F00303022BCD
:100780000192009154D1BDF806306348C3F3891734
:10079000502F3E4628BF502606F1080166F38F13FE
:1007A000C1F30901ADF8063000F091FD05460028BF
:1007B00000F0988000F0BAFD0023082201A9284625
:1007C00000F0C6FD0099CB43DBB20133C9B203315F
:1007D000B6EB830F4FEA830204EB810125D95FFA60
:1007E00082F80823A6EB0806284600F0B1FDF6B211
:1007F00008F10803494903F0FC033246284600F09B
:10080000A7FD009B033703EB97070097D4F8183434
:10081000002B43D1D4F8106453E062689A4294D814
:10082000A260284604B0BDE8F08108233246E5E71F
:10083000012B57D1BDF804303748C3F38311062983
:1008400028BF062161F38913023101F00F018900ED
:10085000ADF8043000F03BFD0546002842D000F022
:1008600065FD0023082201A9284600F071FD00263D
:10087000BDF80420C2F38312B300964203F10803CB
:10088000C4D200994A1CC9B20331009204EB810121
:100890000422284600F05CFD0136E9E7284600F016
:1008A00049FDFFF739FF80F00100C5B2B9E7F368F1
:1008B0005B7923B1336829461B6830469847F36853
:1008C0001E68002EF3D1284600F034FD304600F0BB
:1008D00045FAD4F818340BB9009BA360002000F04F
:1008E0003FFADEE7D4F8104454B90D4B0D480E49D9
:1008F000C01AC008000440F0020000F05FF8D0E722
:10090000236820469B689847E3681C68ECE700254D
:1009100087E700BFF4100020EC4000000011002029
:100920007C400000C4400000244100002DE9F34752
:1009300004460E46924601A9012218469946FFF741
:1009400015FE1C4F10B3019D4FF00008AA1CC845AE
:1009500008EB020125D11848002100F003FA80F3CA
:100960001000000440EA1440E4006B1C04F038045A
:10097000DBB2EDB244F0010407EB8303033544EA34
:10098000881444EA8624D86047F825403B781BB198
:10099000FFF7CCFE0028FBD1FFF7BCFE02B0BDE89C
:1009A000F087C9B207EB81015AF82830CB6008F113
:1009B0000108CCE7F41000201015002000231A468F
:1009C000FFF7B4BF07B50123019201AAFFF7AEFFFD
:1009D00003B05DF804FB07B5CDE9002302236A46A6
:1009E000FFF7A4FF03B05DF804FB1FB5CDE90123B9
:1009F000069B039301AA0323FFF798FF05B05DF858
:100A000004FB000030B50F4CD4F81024034600203E
:100A1000114631B9D96808714AB9C4F810340A606E
:100A200030BDC9680D79854206D00968F1E7D26802
:100A300014680C601360F3E701300A28E8D14FF026
:100A4000FF30EDE7F410002038B5084B0125D3F84E
:100A500010441D7004B938BDE3685D7123682046F9
:100A60005B689847E3681C68F4E700BFF410002057
:100A700030B5C38885B004460D4633B1144A0092A0
:100A80001449154A284600F005FA217A05291DD097
:100A9000637A4BB1A088FFF727FE104B104953F83B
:100AA0002020284600F0F6F9227A0E4BA08853F851
:100AB000222003920021FFF7FBFD039A0A49034617
:100AC000284605B0BDE8304000F0E4B905B030BDBF
:100AD000684100005041000048410000D44100003E
:100AE0006D410000F84100007041000007B5034669
:100AF0000846197A052911D05B7A2BB1094A0A49AF
:100B0000019000F0C7F901980849019000F0C2F97E
:100B1000019803B05DF804EB00F0B1B9002AF8D0F9
:100B2000F2E700BF684100006D410000AE420000E6
:100B30002DE9F04385B01F460C9D002395F80C90DD
:100B40002B7306460C46904629463846FFF790FF21
:100B5000B8F1060F09D8DFE808F00412181F28338F
:100B600040003146284600F095F9002229463846D3
:100B7000FFF7BCFF85F80C9005B0BDE8F083226854
:100B80003146284600F086F9EFE7D4E900233146E4
:100B9000284600F07FF9E8E7A36800933146D4E9DE
:100BA0000023284600F076F9DFE7E3680193A368A5
:100BB00000933146D4E90023284600F06BF9D4E7CE
:100BC00023690293E3680193A36800933146D4E953
:100BD0000023284600F05EF9C7E7636903932369A1
:100BE0000293E3680193A36800933146D4E900239C
:100BF000284600F04FF9B8E708292DE9F74F80465D
:100C00000E4617461C463CD8002593F80C901D73E1
:100C100019461046FFF72CFFDFF888A0DFF888B0F0
:100C2000AE4231D918F805205946204600F032F975
:100C30000135082DF4D11949194DDFF870A020466F
:100C400000F028F94FF0000B5E4522D918F80B2070
:100C50007E2A05D81046019203F084F9019A00B962
:100C60002E225146204600F015F90BF1010BBBF185
:100C7000080FE9D1012221463846FFF737FF84F8F3
:100C80000C9003B0BDE8F08F5146204600F002F909
:100C9000CEE72946204600F0FDF8E6E78441000053
:100CA00082410000804100007A410000864100003E
:100CB0001FB50021039001AA44F20100CDE9011102
:100CC00000F004F805B05DF804FB000038B572B61A
:100CD000FFF7BAFEFFF72AFD0028FBD1104B114C9D
:100CE000114D1249E41AE408240444F00100FFF70E
:100CF00065FED5F8F030DB0700D500BE0C4944F0A6
:100D00000200FFF75BFEBFF34F8FEA68094B02F466
:100D1000E0621343EB60BFF34F8F00BFFDE700BFFE
:100D20007C400000C440000000ED00E00C420000E8
:100D3000184200000400FA0572B6024A1368013333
:100D400013607047AC150020034A1368013B136021
:100D500003B962B6704700BFAC150020FFF7ECBFC7
:100D6000FFF7F2BF10B5034653E8000F0A4643E809
:100D7000002494F0000FF7D110BD10B5034653E8DE
:100D8000002F42EA010043E8000494F0000FF6D17E
:100D900010BD10B5034653E8000F00EA010243E816
:100DA000002494F0000FF6D110BD10B5034653E8AF
:100DB000002F02EB010043E8000494F0000FF6D18D
:100DC00010BD10B5034653E8002FA2EB010043E825
:100DD000000494F0000FF6D110BD0121FFF7CDBF44
:100DE0000021FFF7D6BF10B590B1D0E9012301680B
:100DF0009B1ADBB20A60013BDBB2FF2B026802D117
:100E00000020107110BD11684C1C14600B70F2E7CB
:100E10000E20F7E738B504460020FFF79FFF226851
:100E200063681168994213D9481E106011F8013C9B
:100E3000E568218A01FB0355A36811791B1ADBB20F
:100E4000994200D213710020FFF78AFF284638BD6F
:100E50000025F8E738B5054600200C46FFF77EFF71
:100E60002A681368591C1160E968641A298AB4FB5E
:100E7000F1F41C70BDE838400020FFF771BF8268B4
:100E800010B504462AB143690168006998470023F8
:100E9000A36010BD0EB403B5039921B104AB01AA40
:100EA000019300F06FF802B05DF804EB03B07047F7
:100EB000826830B40468551C8560A154D0E90132C1
:100EC0009A4202D330BCFFF7DABF30BC7047000053
:100ED0002DE9F84F9846DDE90A43154682460F464C
:100EE0000A464FF00109AA420FD2C14538BFC14698
:100EF00013F0010B01D16CB900240126B8F1010FE8
:100F00001BD908F1FF386E43F8E709F10109B2FB7C
:100F1000F5F2E8E79B070ED5B8F1000F0CBF3026BD
:100F20002026A145E9D2013C31465046FFF7C0FFDB
:100F3000002CF6D1E0E72026F3E7B7FBF6F39D425D
:100F4000E1D9DFF83C80B7FBF6F3504618F8031000
:100F500006FB1377FFF7ACFF3346AB42B6FBF5F663
:100F6000F1D2BBF1000F02D00CB1A14501D3BDE815
:100F7000F88F20215046013CFFF79AFFF4E700BFAD
:100F8000254200002DE9F74F0546174688460029FF
:100F900000F03E8118F8011B49B92B7B002B00F0B3
:100FA0003781284603B0BDE8F04FFFF768BF252919
:100FB00040F0B780002698F800302D2B424608F10B
:100FC000010823D0302B24D02B2B25D000242A2B12
:100FD00002F1010123D13B681A1D1B683A601C44D1
:100FE0000A4613782E2B26D101324FF0000A104604
:100FF00010F8011BA1F1300CBCF1090F1DD80A2318
:1010000003FB0A13A3F1300A0246F0E746F001069B
:10101000D1E746F00206CEE746F00406CBE711F82A
:10102000013CA3F130000928DBD80A2202FB04347A
:10103000303C0A46CBE74FF0000A12F8011B01F0E2
:10104000FB0068289046F8D0782909D86F290CD879
:10105000632962D022D8252963D0582900F08880DE
:1010600098F80030002B95D197E770390829F7D808
:1010700001A353F821F000BFEB1100006110000044
:101080006110000081110000611000005F1100007C
:10109000611000006110000071110000642901D08E
:1010A0006929DDD13A68D2F80090111D89EAE97208
:1010B0003960A2EBE9724FF0010B092A35DCD34508
:1010C00038BFD3462CB1B9F1000F01DB720700D550
:1010D000013CB30702D5BAF1000F03D0F00701D4E9
:1010E0004CBB0024B9F1000F2DDAC9F100092D2104
:1010F0002846FFF7DDFE06F00302022A04D1BAF10A
:10110000000F01D11CBB0024CDE9004653460A2242
:1011100049462846FFF7DCFEA2E73B681A1D19780E
:101120003A602846FFF7C4FE9AE70A230BF1010B49
:10113000B2FBF3F2C1E7A345D4D220212846013CFB
:10114000FFF7B6FECCE77107D5D52B21D0E7A34535
:10115000DAD230212846013CFFF7AAFED2E73968EF
:10116000CDE900460A1D3A6053460A220968D0E7D5
:1011700039680A1D3A60CDE9004653461022F5E76A
:101180003B681A1D3A6016F00106D3F8009024D18E
:10119000B9F1000F03D0484602F03FFF0646B442C3
:1011A0001DD809F1FF3919F8011F00293FF458AF84
:1011B0002846FFF77DFEF6E728460136FFF778FE62
:1011C00019F806100029F7D1A642BFF449AF202133
:1011D0002846013CFFF76CFEF6E70026F0E72021E9
:1011E0002846013CFFF764FED9E73B681A1D3A60C8
:1011F000302128461C68FFF75BFE78212846FFF760
:1012000057FE00220823CDE900322146102280E754
:1012100003B0BDE8F08F00BF2DE9F84FB0F806A08D
:101220004579D2F800B09DF828900AFB05F5043DF9
:1012300088460BEB0301A94203F1040488BFA5EB28
:10124000030BB4FBFAF607460AFB1644C2F800B0DB
:101250004EB9AAEB04055D4528BF5D46BBF1000F02
:1012600004D1BDE8F88F3F68013EF1E7043408EB94
:1012700006003C442A46B9F1000F0DD02146ABEBE5
:10128000050B02F07FFEDA452E443F6855464FF0CD
:10129000000428BF5D46E1E701462046EFE7FFF77F
:1012A000A2BDF8B546790146721E05460023934259
:1012B0002D6803D30024A64202D8F8BD0133F6E717
:1012C0000F682846FFF7C6FD01343946F3E72DE9DC
:1012D000F843068ACD1C0746FFF79CFD043E3544C3
:1012E0000446B5FBF6F5F0B14FF48073EDB28380A0
:1012F000C680013D076081464FF00008A84512D224
:101300003846FFF787FD064648B1637901336371BC
:1013100008F10108C9F8000007608146EEE72046A1
:10132000FFF7BFFF34462046BDE8F88301210430B3
:10133000FFF73BBD10B5012104460430FFF741FD26
:10134000C0B220B92046BDE81040FFF7AABF10BDCB
:101350001FB503920022009203AAFFF75DFF05B0BC
:101360005DF804FB1FB503920122009203AAFFF768
:1013700053FF05B05DF804FB08B50020FFF7EEFC55
:10138000F1EE103A23F09F03E1EE103ABFF35F8FC6
:10139000054B4022C3F884210020FFF7E1FC20BF69
:1013A00040BF20BF08BD00BF00E100E0836800220D
:1013B0005A60C3E904229A60DA601A60704700003C
:1013C00038B5074C051E04F1080318BF1C462368F6
:1013D0002BB11A6822605B6828469847F7E738BD4A
:1013E000B815002020B9054B01225A70FFF7E8BF5D
:1013F000012802D1014A9070F8E77047B01500202B
:1014000038B50C4C23789BB90B486360A36023610B
:10141000E36000F049F8054600F052F8012323701C
:10142000064BD3F800340BB10123A370284638BD16
:101430008525F5E7B0150020E51300000000014008
:1014400038B5134CA378054603F0FF0073B115B10E
:101450006B68012098470020FFF780FCE3680133A8
:10146000E3600020BDE83840FFF77ABCFFF776FC68
:1014700025B1226913463BB92A602561E368002B38
:10148000ECD100F02FF8E9E79D42F7D01B68F2E7B6
:10149000B015002000F18040002382B00360036893
:1014A0000193019B02B07047044A137923B90121CB
:1014B000106011711846704785207047C4150020D0
:1014C000074B1A68D20704D4C02283F800230122F4
:1014D0001A604FF080430122C3F81825704700BFFF
:1014E00000E100E008B54FF48270FFF7D3FF4FF042
:1014F00080430222C3F8042301229A6008BD000041
:101500004FF0804210B5D2F8003153B14FF48070E3
:10151000FFF7C0FF0123C2F808330B4B00201B6804
:1015200098474FF08042D2F8043163B14FF4827093
:10153000FFF7B0FF0223C2F80833034BBDE81040A9
:101540001B680120184710BDC4150020014B1B6803
:10155000184700BFCC15002038B50B4B98420C46FD
:1015600001D0002038BD0020FFF7F8FB074B1D79A4
:1015700015B901221C601A710020FFF7F1FB002D44
:10158000EFD01120EEE700BF00200040CC15002076
:1015900000F1804000F5E040002382B00360036862
:1015A0000193019B02B07047F0B5524B524CD3F8F7
:1015B000043185B0002B3DD094F82E204FF482707A
:1015C000FFF7E6FF2AB394F82F3013BB494AD2F84D
:1015D0000031002B32D04FF48070FFF7D9FF638BBE
:1015E00094F82D00834250D921891B1A9BB289B2ED
:1015F0006383CB1A616801EB4303C2F82C36C2F84F
:1016000030064FF48270FFF7C3FF3A4B01225A6055
:1016100014E0636802932389ADF80C30E36800217D
:101620008DF8041033BB2374236801A89847002366
:1016300084F82F3094F82E30002BC7D12D4BD3F8DF
:1016400010315BB14FF48870FFF7A2FF00232374C1
:1016500002238DF8043001A823689847254BD3F85E
:101660001431EBB14FF48A70FFF792FF002323741B
:1016700005B0F0BD208B608363602081E160002AAB
:10168000D2D11C4B01221A60CEE7BAD1E368012106
:1016900084F82F1013B100216183AEE76383B0E7B4
:1016A00066694FF000470125002EE1D0B6FA86F2B8
:1016B00027FA02F34632920026EA030602F180433B
:1016C00003F5E0431B68002BEED01046A2F58C72A8
:1016D000FFF75EFFD30882F00402C2F380028DF8A8
:1016E00008308DF8045023688DF8092001A8984728
:1016F000DAE700BF00700040D415002038B5204A5A
:1017000092F82C300446002B37D111601D49007827
:10171000C1F8F0056078C1F8F4050125E07813748C
:1017200082F82D30536182F82F306FF0004382F839
:101730002E0082F82C504FF48270C1F80833FFF766
:1017400027FF4FF48070FFF723FF4FF48A70FFF7F5
:101750001FFFA3780C485B01DBB280F807338023BE
:1017600003600223C1F8043392F82E300BB1C1F8A4
:101770000453C1F80055002038BD0820FCE700BF25
:10178000D41500200070004000E100E030B5224B8D
:101790001A7C002A3ED100F10C0403EB44021279BA
:1017A00022B993F82D20013283F82D2003EB440356
:1017B000CA790C7A8D781A715C714B782D021B01F5
:1017C00005F4E06503F030032B430D7805F00305C5
:1017D0002B43CD782D0305F480552B430D792D0433
:1017E00005F4E0252B434D7989792D0505F4801505
:1017F000090601F080712B430B43010101F1804187
:1018000001F5E0410020C1F81835C1F81445C1F8D0
:10181000102530BD1120FCE7D415002070B5324AE8
:10182000147C04F0FF03002C5CD1304C012503260E
:101830001574C4F80863C4F82C16C4F8305692F82E
:101840002D40AC420CD91D46190101F1804101F532
:10185000E0410133082BC1F81455C1F81055F3D1FC
:1018600000F10C03000102EB430300F1804000F59E
:10187000E04019795B79C0F81435C0F810151B49A0
:1018800001230B604B6042F21073D1F8040108B9D8
:10189000013BFAD14FF48070FFF77AFE4FF482706B
:1018A000FFF776FE012C11D90F4800210B0103F13F
:1018B000804303F5E0430131047F457FC3F81455AD
:1018C0000829C3F8104500F10200EFD192F82E105C
:1018D000064B29B103210020C3F80413107470BD16
:1018E0000221F8E71120FAE7D4150020007000402B
:1018F00008B50A4B197C01F0FF0269B902214FF4C7
:1019000088701974FFF744FE054B1021C3F80413C7
:101910000121D960104608BD1120FCE7D415002034
:10192000007000400023435082B043580193019B54
:1019300002B07047F0B51A4C43791A4D44F8232091
:1019400003EB4303EB5C43BB90F904408B780279D3
:101950005B01002CDBB21BDB134E371987F8003319
:101960000123640902F01F0203FA02F246F8242060
:1019700003680A88C3F8082543790879C97803EB16
:101980004303EA18507091700122EA540020F0BD20
:10199000064C02F00F02A354EAE70820F7E700BF65
:1019A000081600200416002000E100E014ED00E01D
:1019B000036801221A604379024A03EB43030221C0
:1019C000D1547047041600202DE9F04105464FF42C
:1019D000803400681C4F8C40C0F84843C0F808436E
:1019E00095F805C00CEB4C063E4422F07F4296F879
:1019F000018001F5A8764FEA4C0E40F82620B8F198
:101A0000000F11D0D0F80485F4446744A8EB020617
:101A1000904538BF06F1FF16BA7838BF06F57F4605
:101A2000B24201DD0D200CE03BB15031890089B29A
:101A3000FFF778FF2B68C3F804432B680020C3F836
:101A40004443BDE8F08100BF041600202DE9F041B9
:101A5000224E234FDFF88C8000244FF48035D7F8D6
:101A60000433A6F580412B4289B20CD0336853B1C0
:101A7000C7F848533846C7F80853FFF753FFD8F85C
:101A80000030E0B298470134042C4FEA450506F1D6
:101A90000406E4D11248D0F80433DA070AD5D0F8A6
:101AA00000313BB14FF48071FFF73CFF0D4B2046F6
:101AB0001B6898470A48D0F804339B070CD5D0F828
:101AC00004314BB14FF48271FFF72CFF054BBDE899
:101AD000F0411B6805201847BDE8F08140410240F5
:101AE00000400240081600201FB503788DF8003032
:101AF0008388ADF8043083688DF80630C3688DF8AC
:101B00000730036902934369054A0393054B68460E
:101B100053F8213052F82110984705B05DF804FBC6
:101B20000C16002014160020024B4FF4807043F076
:101B300001031847704200001F2886BF054A00F0C5
:101B40001F004FF0A042012303FA00F0C2F808057D
:101B5000704700BF000300502DE9F047154690F88C
:101B60000080394A42F82850384A42F828304B7BE6
:101B700006460C46A3B30868DFF8D8904FF0A041A2
:101B800000F5E07340F20C6241F82320636803F52E
:101B9000E073002741F82320FFF7CEFF6068FFF7CE
:101BA000CBFF236803F5E07340F20D6241F8232078
:101BB000636803F5E0734FF0010A41F82320FFF753
:101BC000B3FF63681F2B8ABF4A464FF0A04203F061
:101BD0001F03D2F8102522FA03F3DB070BD507BB4E
:101BE000002D1B4A434608BF2A462146301DBDE84A
:101BF000F04700F027B923681F2B86BF03F01F03AF
:101C00004A464FF0A0420AFA03F3C2F80C35FFF738
:101C10008BFF01372068FFF78FFFFFF785FF092F44
:101C2000CFD163681F2B86BF0A4903F01F034FF013
:101C3000A041012202FA03F3C1F80C35FFF774FF4B
:101C40006068FFF779FFCBE7141600200C16002020
:101C5000E91A0000000300500023435082B04358AB
:101C60000193019B02B070470B7B032B2AD8DFE85E
:101C700003F022261A028B685A0304D5D0F84C359B
:101C80000A699A4207D18B685B031BD4D0F84C35A4
:101C90004A699A4216D000230622C0F80035C0F8DF
:101CA000002518467047D0F84C350A699A42F2D19F
:101CB000D0F83C35ECE7D0F84C350A69E9E7D0F8C4
:101CC0003C35FAE701207047F0B5594D594CD5F82D
:101CD000243187B0FBB14FF492712846FFF7BCFF67
:101CE000D5F80431BBB9A368C5F808330223A36053
:101CF000A368C5F80433D5F860311BB1D5F80032BC
:101D00009F0503D44A4B01221A625A61012384F8C9
:101D10002E3007B0F0BDD5F80431002B50D0444828
:101D20004FF48271FFF798FF236A5E0609D494F896
:101D30002E3033B93F49FFF797FF80F0010084F858
:101D40002E00236A5D0720D43B4E0FCE01AD0FC598
:101D5000336837482B604FF4B071FFF77DFF4FF4C5
:101D6000AE71FFF779FF94F8303013B194F82E304C
:101D70005BB12F4B0022C3F80022A2602F4AC3F8A8
:101D800008232F4B0822C3F88021294AD2F8C434F3
:101D9000C2F8C43498073DD501238DF8003094F87B
:101DA00030300BB984F82F30236A5B0703D594F8E1
:101DB0002E30002BADD0D4E9003168469847A8E713
:101DC0001B484FF4A471FFF747FF237B83B91A4FD9
:101DD0000FCF01AE0FC63B68336094F83030002B54
:101DE000D3D1C5F80032A360144BC5F80833C8E757
:101DF0004FF40073C5F8003240F20223A36003F1F0
:101E0000CE73C5F80833A368C5F804330123AB606B
:101E10002B627EE7590701D50223BEE7DA0701D519
:101E20000323BAE794F82E30002BB6D00423B4E78E
:101E3000003000401C1600202816002002029C01E1
:101E400000E100E02DE9F84F0679394D4FF0340AF2
:101E50000AFB06FA05EB0A079B4697F82D308046E9
:101E60000C469146002B5FD132490068FFF774FBA6
:101E700000285BD12168637B87F832301F298CBF33
:101E800001F01F030B4603F5E07388BF2A4AB860D0
:101E900098BF4FF0A04240F20C6C87F82F0042F838
:101EA00023C06268C7F804B01F2A8CBF02F01F036A
:101EB000134687F8300003F5E07388BF1E4F45F8DE
:101EC0000A9098BF4FF0A04747F823C0D8F80030D9
:101ED000C3F80815C3F80C25A268C3F82425B9F186
:101EE000000F14D0227B43F3073152010029C3F3C2
:101EF0000733D2B213DB114C671887F80023012295
:101F0000490903F01F0302FA03F344F82130342394
:101F100003FB0655012385F82D30BDE8F88F0849ED
:101F200003F00F03CA54F2E70820F6E71120F4E7A4
:101F30001C160020C91C00000003005000E100E056
:101F400014ED00E0036802790621C3F80015044B84
:101F5000342101FB0233022283F82D20704700BF99
:101F60001C1600202DE9F843DFF8C88290F8049091
:101F70000468342606FB0986002386F82E30CB68D9
:101F800003F06043B3F1005F0D46174603D01026FF
:101F90003046BDE8F883A64BC4F8083396F82F30D6
:101FA00023B1B368C4F804331126F1E712F0140F1B
:101FB0000CBF0123002386F82F308E46BEE80F00A9
:101FC00006F10C0CACE80F00DEF80030CCF8003065
:101FD000C7F3001386F8303037626B78C4F8883561
:101FE00020464FF48271FFF737FE4FF49271FFF7EE
:101FF00033FE4FF4B071FFF72FFE4FF4A471FFF7DB
:102000002BFE17F0010318BF0123C4F8503517F059
:10201000020318BF0123C4F840352B78032B00F2CC
:10202000B580DFE803F084A069022B6903F0604308
:10203000B3F1005FABD14FF48073C4F80032EA68AB
:102040006B68C4F844254FF4A871C4F84835FFF70D
:1020500003FE01232362A360D4F85031002BFBD090
:102060004FF4A8712046FFF7F7FDAB682A69C4F862
:102070004425C4F84835342303FB09834FF48022F8
:102080009A60082300263A0704D42A78032A1CBF42
:102090000122E250342303FB09F308EB030258F852
:1020A0000330002B75D10125D4F84821D4F8043130
:1020B000002B40F08980003A18BF0122D4F8243167
:1020C000002B00F088804FF492712046FFF7C4FD8A
:1020D000D4F86011D4F8003209B1980504D425620F
:1020E00065610029E0D00022D90574D54FF4A471B0
:1020F0002046FFF7B1FDD7E76B68EA68C4F84425CE
:10210000C4F848352B6903F06042B2F1005F7FF4F8
:102110003EAFAA68C4F834354FF48453C4F8382568
:10212000C4F80032342303FB0983022212E06B68F7
:10213000EA68C4F8442517F0200FC4F848354FF07A
:1021400034030BD04FF48072C4F8002203FB0983E0
:102150004FF480229A600123236292E74FF40072C9
:10216000C4F80022DFE76B68EA68C4F83425C4F8D5
:1021700038354FF48053C4F80032342303FB09830D
:1021800002229A600123236200237BE708230726AB
:1021900079E77B0744BF002393607D0606D4342390
:1021A00003FB09839A6842F002029A60342303FB1E
:1021B0000988D8F8083043F40073C8F80830D8F814
:1021C0000830C4F80433E3E64FF482712046FFF789
:1021D00043FD012272E7002A3FF466AF3421D4F8B0
:1021E000C434C4F8C43401FB0982002082F82F00F3
:1021F00093B113F0010F14BF4FF40246032648F2C7
:10220000012213F0020F18BF164613F0040F48F214
:10221000022318BF1E46BBE67B063FF5B9AE09FB9D
:1022200001812046FFF720FD002808BF0326AFE606
:1022300002029C011C16002010B586B00024CDE9D6
:1022400002349DF820308DF80510A342CDE9042416
:1022500001A914BF202222468DF80440FFF782FE18
:1022600006B010BD10B586B0012402930023CDE95D
:1022700003328DF805101A4601A98DF80440059324
:10228000FFF770FE06B010BD7FB503788DF80430FF
:102290004368029383688DF80C30C3680493036924
:1022A000064A8DF81430064B01A853F8213052F835
:1022B0002110984707B05DF804FB00BF50160020BE
:1022C00060160020F0B50546174615F804CB124AF3
:1022D00042F82C70114A42F82C30114B0C460FCBAF
:1022E00085B06E4686E80F002368009323798DF849
:1022F000053063798DF80630A3680293002FA38917
:10230000084AADF80C3008BF3A46634631462846C5
:1023100000F054F805B0F0BD601600205016002003
:102320007C420000892200001F2886BF054A00F079
:102330001F004FF0A042012303FA00F0C2F80C0581
:10234000704700BF000300501F2886BF054A00F0F9
:102350001F004FF0A042012303FA00F0C2F8080565
:10236000704700BF000300504FF0402307B5D3F87B
:102370001821DAB10F490022C3F81821C87FD3F819
:1023800018310193FF28019B03D08B7F5BB1FFF7CE
:10239000CBFF00234B770B72D1E90031064803B025
:1023A0005DF804EB1847FFF7CFFFF2E703B05DF8E5
:1023B00004FB00BF70160020781600202DE9F74FAF
:1023C00006796D4D01934FF0240909FB06F905EBE1
:1023D000090A93469AF81C2080460C46002A40F0D1
:1023E000C780076865493846FFF7B6F801460028F8
:1023F00040F0C08045F809B0019BCAF80430237B47
:102400002078012B00F29D80FFF78EFF23781F2B91
:1024100086BF03F01F035A4A4FF0A04203F5E07352
:10242000012042F8230094F80190B9F1FF0F00F069
:102430008B804846FFF778FFB9F11F0F8BBF09F07B
:102440001F034B464E4A4FF0A04203F5E0730320B2
:1024500042F82300A378FF2B79D01F2B8BBF03F00A
:102460001F021A4646484FF0A04002F5E0724FF0B6
:10247000040C40F822C09A46242202FB065282F83D
:102480002030E078D077FF2816D02379002B61D058
:10249000FFF74AFFE3781F2B86BF03F01F03384A7C
:1024A0004FF0A04203F5E073032042F823002423F9
:1024B00003FB065322799A772378C7F80835A36877
:1024C000C7F80C95C7F810A5C7F82435637B227BA5
:1024D000003B18BF0123022A3FD0032A40D0012A23
:1024E00001D143F00203C7F85435A379C7F8C035CA
:1024F0000723C7F8003524237343EB58B3B1D8F84A
:102500000030627943F3073052010028C3F30733E8
:10251000D2B228DB1B4C271887F800230122400980
:1025200003F01F0302FA03F344F82030242303FBD3
:10253000065500236B7701232B77084603B0BDE8CF
:10254000F08FFFF701FF61E74FF0FF3982E74FF0AF
:10255000FF3A91E7FFF7F8FE9CE743F00403C2E778
:1025600043F00603BFE7084803F00F03C254DDE75A
:102570000821E2E71121E0E770160020692300003E
:102580000003005000E100E014ED00E02DE9F3410C
:102590000779424E24237B431446F2180D46517F9F
:1025A0008046002978D1F35823B114F0140F04BFEA
:1025B0000123537795E80F004FF0240C0CFB076CB8
:1025C0000CF10C0E8EE80F009CF81F00FF2804D0C1
:1025D0009CF81E30C3B1FFF7B7FE296821B101F0A6
:1025E0006043B3F1005F06D1AA6882B102F0604394
:1025F000B3F1005F0BD0242303FB0766002373773E
:10260000102002B0BDE8F081FFF78EFEE5E7D8F8B4
:1026100000306868C3F84415C3F84805E968C3F892
:1026200034250022C3F83815C3F81821D3F818212F
:102630000192019A14F0010218BF0122C3F850253B
:1026400014F0020218BF0122C3F8402522075CBF24
:1026500001221A6124227A43B25892B9D3F8182180
:10266000002AFBD0242303FB0766F07FFF2803D05A
:10267000B47F1CB1FFF758FE0020C2E7FFF764FEED
:10268000FAE714F004004FF0400202D0C3F8082328
:10269000F2E7C3F80423B4E71120B2E77016002074
:1026A0000378022B09D10548054B0649C01AC0081A
:1026B000000440F00300FEF781B97047C4400000F9
:1026C0007C4000009142000013B5002845D13A4AF1
:1026D0003A4CA41A3A4A1278E4082404002A3ED05C
:1026E0000DF10601ADF80600FFF798F80246002844
:1026F00041D0344944F00100FEF764F94FF0A042A4
:10270000D2F80435D94301F4005103F40053C2F860
:102710000815C2F80C352C4A1368013313602B4B93
:102720001B7813B301F020F84FF0A042D2F8043523
:10273000D94301F4804103F48043C2F80815C2F87C
:102740000C352348012320220021FFF73DF908B171
:10275000FEF7AEFA1F4B01229A6002B010BD1E496F
:1027600044F00200FEF72AF9D9E71C4944F00200C0
:10277000FEF724F9E5E7BDF906209FED197A19491E
:1027800007EE902AF8EEE76A44F00300C6EE877A77
:102790009FED157A67EE877A9FED147A67EE877A58
:1027A000B1EE087A67EE877AFDEEE77A17EE903A97
:1027B000FEF711F9A2E700BF7C400000C440000012
:1027C00099160020B14200009416002098160020AF
:1027D0007043000000400240D4420000004300006B
:1027E00000F07F452F4300009A99193F00007A447A
:1027F0004FF0A0430222C3F8082770471FB50123FA
:102800008DF8033002238DF80030002406231B4985
:102810008DF8014068468DF80230FEF76FFF08B171
:10282000FEF746FA02238DF8083001A901230020A3
:102830008DF807408DF806408DF809408DF80B3073
:102840008DF80C408DF804408DF80540FEF79EFF92
:1028500008B1FEF72DFA0A480A4B0B49C01AC00806
:10286000000440F00300FEF7A9F8FFF741F8002844
:10287000FBD1064B01221A7004B010BDA126000046
:10288000C44000007C400000444300009916002032
:10289000002108B50846FDF7F7FE08B1FEF708FA73
:1028A000BDE80840FDF734BE13B5002301224FF008
:1028B000A04103200133202B52D14FF0A0434FF40D
:1028C000F032C3F808250022C3F80C254FF08043EE
:1028D0000122C3F878252748274B2849C01AC00889
:1028E000000440F00300FEF769F8FFF7D1FFFFF79F
:1028F0007FFFFEF785FD08B1FEF7DAF90020FEF74D
:102900009FFD002001F006F800F01AFE38B100210A
:10291000012000F039FB00F091FE194B1870FFF711
:102920006DFF40F2FF33174A1748ADF80030694693
:10293000FFF700F808B1FEF7BBF913480123202286
:102940000021FFF741F808B1FEF7B2F90E48FFF792
:102950002FF8FDF7EBFE0028FBD1FEF70DFDF8E7A1
:1029600002FA03F414F4F03F1CBF03F5E07441F8DD
:1029700024009FE7C44000007C4000006243000048
:1029800098160020C9260000704300000369C26841
:1029900093429CBF80681B18013B981A70472DE931
:1029A000F843D0E902940546A9EB04084068904535
:1029B00020440F46144404D901F0E4FAEC60BDE869
:1029C000F8834246A4EB090401F0DCFA6868224669
:1029D00007EB0801F0E72DE9F843C568064689468C
:1029E00017464FF000083469B3687068A54228BFE5
:1029F000E418013C621B5C1BBC4228BF3C4694426D
:102A000028BF144649462844224601F0BBFAB36861
:102A10002544AB4208BF00253F1BA044A144F560FC
:102A2000E1D14046BDE8F88310B5114C114AA261CE
:102A30000223C4E90433104BE361A2644FF4007332
:102A40000E4A0F492362E26400231022E01DA362B4
:102A50006362E362A3656365E365226501F0BBFA27
:102A60000849204601F0B7FA2023A37110BD00BF2A
:102A70009C16002078430000241700201417002023
:102A8000814300008543000070B5164B182400FBFD
:102A900004451D4404FB00331646DC6A012C0ED0AD
:102AA000022C18D0E4B92846FFF770FF864204D8FC
:102AB00032462846FFF773FF3446204670BD28464D
:102AC000FFF764FF8642344628BF04462246284664
:102AD000FFF765FFF1E72846BDE87040FFF77BBFD1
:102AE0000024EAE79C160020FFF79EBF4FF08053BA
:102AF000D3F83001A0F10D0358425841704700004F
:102B0000024AD2F80034002BFBD0704700E00140AD
:102B100010B5FFF7EBFF40B14FF080430022C3F840
:102B20000C21C3F81021C3F83825FFF7DFFF002878
:102B300046D04FF08052514BD2F80414C3F8201500
:102B4000D2F80814C3F82415D2F80C14C3F82815C9
:102B5000D2F81014C3F82C15D2F81414C3F8301599
:102B6000D2F81814C3F83415D2F81C14C3F8401561
:102B7000D2F82014C3F84415D2F82414C3F8481529
:102B8000D2F82814C3F84C15D2F82C14C3F85015F9
:102B9000D2F83014C3F85415D2F83414C3F86015C1
:102BA000D2F83814C3F86415D2F83C14C3F8681589
:102BB000D2F84014C3F86C15D2F84424C3F8702539
:102BC000FFF794FF48B14FF08043D3F80024D207B9
:102BD00044BF6FF00102C3F80024294AD2F88830BC
:102BE00043F47003C2F88830BFF34F8FBFF36F8F89
:102BF0004FF08053D3F830210D2A0ED1D3F8343161
:102C0000022B02D81F4AD35C3BB14FF01023D3F8FC
:102C100008224FF08043C3F858254FF01023D3F813
:102C20000022002A03DBD3F80432002B22DA1649F3
:102C300001234FF01020C1F804351224FFF760FF84
:102C4000C0F80042FFF75CFFC0F80442FFF758FFEE
:102C50000023C1F80435FFF753FFBFF34F8F084936
:102C60000A4BCA6802F4E0621343CB60BFF34F8F94
:102C700000BFFDE7064B074A1A6010BD00C00040C8
:102C800000ED00E08C43000000E001400400FA0584
:102C9000080000200090D003024B4FF47A4043F02C
:102CA00001031847C043000030B5174B174C1849B3
:102CB000E41AE408240444F0030585B02846FDF72F
:102CC0007DFE1B221A23CDE900234FF0CC71022395
:102CD000CDE9021300231A460E486946FEF73CFF71
:102CE000024620B10C4944F00100FDF76BFE0B4891
:102CF000FFF728F90A492846FDF760FEFDF716FDA3
:102D00000028FBD105B030BD7C400000C44000006D
:102D10008F430000C843000098430000CC430000EC
:102D2000A643000030B585B00023020C8DF80B30AF
:102D3000050A009313060C468DF80C208DF80D50F3
:102D40008DF80E0016D51948032303AAFFF774FA6D
:102D500050B1174A174B18499B1ADB081B0402464F
:102D600043F00100FDF72EFEFFF796FF9DF80B00E4
:102D700005B030BD0D48022303AAFFF75DFA50B13C
:102D80000B4A0C4B0C499B1ADB081B04024643F010
:102D90000100FDF717FEFFF77FFF01230DF10B0286
:102DA00021460248FFF75EFAD2E700BFCC4300009D
:102DB0007C400000C4400000984300001FB5020A98
:102DC00000233F2A8DF80B3000938DF80C208DF8EE
:102DD0000D008CBF01230223144803AA0C46FFF701
:102DE0002BFA50B1124A134B13499B1ADB081B04F0
:102DF000024643F00100FDF7E5FD0C4801230DF10B
:102E00000B022146FFF72EFA50B1094A094B0A4935
:102E10009B1ADB081B04024643F00100FDF7D2FDBC
:102E2000FFF73AFF9DF80B0004B010BDCC43000043
:102E30007C400000C44000009843000010B586B0FC
:102E400000238DF80F008DF81730009318480123E8
:102E50000DF10F020C46FFF7EFF950B1154A164B72
:102E600016499B1ADB081B04024643F00100FDF7DC
:102E7000A9FD9DF90F30002B05DAFFF70DFF9DF836
:102E8000170006B010BD0A4801230DF117022146B4
:102E9000FFF7E8F90028F0D0064A074B07499B1ACC
:102EA000DB081B04024643F00100FDF78BFDE4E75D
:102EB000CC4300007C400000C44000009843000068
:102EC0000C4B1A68C0F3090060F31122B0F5307F93
:102ED0001A60094A04D2125C1A70186800F02EBDFC
:102EE00000F5A071C1F309017F29F4D9125C1A70B1
:102EF000F3E700BFC80F00206019002038B5054D6A
:102F0000044645F001054FF47A40A847013CFAD148
:102F100038BD00BFD0470000882808B505D1124B46
:102F2000187800F01FFD012008BD8A2801D10F4B41
:102F3000F6E78C2801D10E4BF2E78E2801D10D4B1C
:102F4000EEE78D2801D10C4BEAE7962801D10B4B17
:102F5000E6E7992801D10A4BE2E79C2801D1094B09
:102F6000DEE70020E0E700BF970E0020930E002070
:102F7000910E00209E0E0020920E0020960E002042
:102F8000950E0020940E00202DE9F0415F4B804605
:102F90005F481B1ADB081B040F4643F003005D4922
:102FA000FDF70CFDFDF7C2FB0028FBD15A4D5B4E2F
:102FB0005B4CB8F1000F64D1002F3BD1594BAB6093
:102FC00040F2F9236B60584B2F80B360C4E901775E
:102FD000402373604FF4707333804FF44873238041
:102FE0002388DFF88881514FD5E90121A3F530739B
:102FF0009BB2A8F80030B2F5307FC3F550733B8028
:103000006DD84B4800F0BEFF636863B13A88B8F8EA
:103010000000474DA16800F53070934228446BD8FA
:103020001A4600F0AFFFD6E901214248BDE8F04161
:1030300000F0A8BF012F12D13F4BAB604FF43273A9
:103040006B603E4BB360402373604FF4707333800A
:103050003B4BA5F80080A3609B236360BDE7022F74
:10306000BED1354BAB604FF432736B60354BB36000
:10307000402373604FF470733380A5F80080324BA7
:10308000E9E7B8F1010FABD13FB9304BAB604FF47A
:103090000D736B602F802E4B97E7012F0ED12D4BB8
:1030A000AB604FF429736B602B4BB36040237360AC
:1030B0004FF4707333802880284BCCE7022F8FD1D8
:1030C000244BAB604FF429736B60254BB3604023F6
:1030D00073604FF4707333802880224BBBE74FF44A
:1030E0003072134800F04EFFD5E901211E48A2F5C9
:1030F000307201F5307185E700F044FFD4E9012119
:103100003B8805F55070D21A19448AE7C440000084
:103110007C400000D8430000481900203C190020E2
:10312000301900208A040020830700202C19002079
:1031300060190020201D0020E7000020A7000020CB
:103140000C0000204A040020AF0300205D0C00208A
:10315000C3070020DE0800209E080020030800208E
:103160001D0C0020820B0020201C00202E190020A6
:1031700008B5164B02465878197062F305003D2ACF
:10318000587004D81868BDE8084000F0D7BB104854
:10319000104BA2F13E011B1ADB0801294FEA034044
:1031A00009D80D4940F00300FDF70CFCFDF7BEFA0D
:1031B0000028FBD108BD094940F00200FDF702FCE0
:1031C000FDF7B4FA0028FBD1F4E700BFC40F0020DC
:1031D0007C400000C4400000E343000017440000AE
:1031E000B0F5806F10B502461CD2164C23689B0CBC
:1031F0009B04C0F3090043EA0020206000F09EFB1E
:1032000020702368104AC3F30923B3F5307F01D23D
:10321000D05410BD03F5A071C1F309017F29F7D97E
:10322000D054F6E7094C0A4B0A49E41AE40824048E
:1032300044F00300FDF7C6FBFDF778FA0028FBD148
:10324000E7E700BF980E0020601D0020C44000008A
:103250007C4000004444000010B50024A0B20134BA
:10326000FFF7BEFFB4F5806FF8D110BDB0F5806FE9
:1032700008B5024603D2BDE80840FFF721BE074863
:10328000074B08491B1ADB081B0443F00300FDF73A
:1032900099FBFDF74BFA0028FBD108BD7C400000EC
:1032A000C44000007644000038B5002440F2EF35F9
:1032B000AC4202D0A0B2FFF7D9FF0134B4F5806F61
:1032C000F6D1BDE8384040F2EF30FFF7F9BD00001D
:1032D0002DE9F7431F4F204E204CDFF89490FFF765
:1032E000BBFF1F4B3B601F4B33601F4BE41AE408CE
:1032F000240444F003044FF0000801253B683268C1
:103300001B78127893420DD00092494642462046DF
:10331000FDF76BFBFDF70AFA05460028FAD1642099
:10332000FFF7ECFD3B6801333B60336808F10108AF
:103330000133B8F5806F3360E0D13DB10B492046D1
:10334000FDF73CFBFDF7F2F90028FBD103B0BDE827
:10335000F08300BF5C19002058190020C440000011
:1033600060190020601D00207C400000E144000046
:10337000A94400002DE9F843164C174BDFF85C8098
:10338000DFF85C90E41AE4082404002744F0030406
:103390004FF470763D463220FFF7B0FD16F8082056
:1033A000EB009A4001363A4316F0030705F1010598
:1033B0000DD149462046FDF705FBFDF7B7F900287A
:1033C000FBD10546B6F5806FE5D1BDE8F883174619
:1033D000F8E700BFC44000007C40000060190020F6
:1033E0000C45000070B5284E284D83083370222804
:1033F00000F0030302462B6036D8254C00F03F0254
:10340000208820F47F5020F03F0040EA02202080F6
:1034100000F47F4000F09CFA32782070072A0FD821
:1034200063781C4913F0030308BF0B602B68DB00B3
:1034300098400B681843184B086043F8220070BD91
:10344000082AFCD12B681BB9134B83F82000F6E740
:10345000012B03D1104B83F82100F0E7022BEED1B2
:103460000D4B83F82200EAE70C480D4B0D49C01ABA
:10347000C008000440F00300FDF7A4FAFDF756F978
:103480000028FBD1DBE700BF241900202819002009
:103490009C0E0020A421002080210020C4400000B8
:1034A0007C400000134500002DE9F0472DED048B12
:1034B00082B000231D4F1E4EDFF87880DFF8789031
:1034C000DFF878A0019305460024012DF7EC018A6E
:1034D00029D0022D0CBF4B465346234493ED000ADE
:1034E00093ED019A93ED028A00F01CFBF0EE400A86
:1034F000B0EE000A00F078FCF8EE688A0422C8EE0C
:10350000807A30460DEB02010C340436A7EE898A2E
:103510008DED018A00F036FD602CD6D102B0BDECF5
:10352000048BBDE8F0874346D7E700BF8021002029
:1035300060210020A00E0020000F0020600F00205E
:1035400038B51E4C1E4B1F49E41AE408240444F00D
:1035500003042046FDF732FAFDF7E8F80028FBD116
:10356000194B1888000A00F0FDF905466420FFF7A2
:10357000C5FC112D17D1154920462822FDF722FA46
:1035800013492046FDF71AFAFDF7D0F80028FBD1C1
:10359000012510492046FDF711FAFDF7C7F800286C
:1035A000FBD1284638BD0C492A462046FDF70AFAC9
:1035B000FDF7BCF805460028FAD1EAE7C440000050
:1035C0007C40000044450000C00F00205945000029
:1035D00079450000D34500009A45000010B500244D
:1035E000E0B20134FFF7FEFE202CF9D110BD00003F
:1035F0000D4B10B50D4CE41A0D4B1B78E408240458
:1036000033B90C4944F00200BDE81040FDF7D6B9CB
:103610008C20FFF781FCFFF7E1FF0020FFF744FF5C
:10362000054944F00300EFE77C400000C44000007F
:1036300054190020E94500002146000038B53A4BF6
:103640003A4C3B49E41AE408240444F003042046BD
:10365000FDF7B4F90A20FFF751FC8820FFF75CFC66
:1036600034492046FDF7AAF90A20FFF747FC00215C
:103670002F20FFF77DFD30492046FDF79FF9FDF72C
:1036800055F80028FBD164202C4DFFF737FCFFF7DD
:10369000E3FD2B492046FDF791F995F8EF232949E1
:1036A0002046FDF78FF9284B284993F8EF23204651
:1036B000FDF788F9FDF73AF80028FBD1FFF7F4FD94
:1036C00023492046FDF77AF9FDF730F80028FBD1B1
:1036D000FFF7FEFD1F4995F8EF232046FDF772F92D
:1036E0008A20FFF719FC1C492046FDF767F9FDF712
:1036F0001DF80028FBD1194D01230A202B70FFF77C
:10370000FDFB17492046FDF759F9FFF733FE154930
:103710002046FDF753F9FDF709F80028FBD1FFF724
:1037200067FF287838BD00BF7C400000C44000001F
:103730003D4600005446000067460000601D002022
:103740007F4600009346000060190020B24600004A
:10375000D0460000E74600000C4700005419002046
:103760002F4700003D47000010B55748574C584BB5
:103770002DED048B001B1B78C00884B004044BB9EA
:10378000544944F0020004B0BDEC048BBDE8104085
:10379000FDF714B98C20FFF7BFFBFFF71FFF0020D8
:1037A000FFF782FE4C4B4D4993ED009AD3ED018A11
:1037B00093ED028A44F003000390FDF7FFF8B5EEA5
:1037C000C09AF1EE10FA039877D5FFEE007AB4EEC6
:1037D000E79AF1EE10FA70DD414A42490390FDEE9E
:1037E000C97AB5EEC09AF8EEE76AF1EE10FACCBFEE
:1037F00079EE666A76EEC96A9FED3B9A66EE896A53
:1038000017EE903AFDEEE66ACDED006AFDF7EDF8B1
:10381000F5EEC08AF1EE10FA039850D5FFEE007A6B
:10382000F4EEE78AF1EE10FA49DD2D4A2F490390B4
:10383000FDEEE87AF5EEC08AB8EEE77AF1EE10FA1E
:10384000CCBF38EEC77A37EE687A17EE903A27EE9B
:10385000097ABDEEC77A8DED007AFDF7C6F8B5EEB0
:10386000C08AF1EE10FA03982BD5FFEE007AB4EE81
:10387000E78AF1EE10FA24DD194A1D49BDEEC87A37
:10388000B5EEC08AF8EEC77AF1EE10FACCBF78EE4A
:10389000677A77EEC87A17EE103A67EE897AFDEE0E
:1038A000E77ACDED007AFDF7A0F8FCF73FFF00289E
:1038B000FBD104B0BDEC048B10BD0E4A8DE70D4A60
:1038C000B4E70C4AD9E700BFC44000007C400000C8
:1038D000541900204E4700006021002030460000AF
:1038E0008047000082470000286B6E4E9A47000018
:1038F000B2470000B04200004FF0A0430322C3F8DB
:103900005C274FF4000210B9C3F808257047C3F8CC
:103910000C25704708B5FFF7EFFF074B187018B973
:10392000BDE80840FFF7C0B9012803D1BDE8084051
:1039300000F022B808BD00BFA8210020034B1B786F
:1039400013B92821FFF7EEB900F05CB8A8210020D8
:10395000034B1B7813B92821FFF730BA00F088B861
:10396000A8210020034B1B7813B92821FFF766BA62
:1039700000F0ACB8A82100207FB5194B194C1A49AA
:10398000E41AE408240444F003063046FDF716F870
:10399000164B0FCB6D4685E80F00154B00934FF08B
:1039A0008053029301238DF80C3000231A461148EE
:1039B0002946FEF787FC024620B10F4944F001007A
:1039C000FDF700F80D493046FCF7F8FF0C4930468A
:1039D000FCF7F4FFFCF7AAFE0028FBD104B070BD91
:1039E0007C400000C4400000D6470000144800009E
:1039F0001415131628480000DF470000ED470000AB
:103A0000024800007FB5030C8DF80030030A8DF8E2
:103A10000130124B8DF802001B8AADF8043001A969
:103A20000323CDE9041300220D488DF8062002A9D6
:103A3000CDF808D00393FEF7A9FD50B1094A0A4B0F
:103A40000A499B1ADB081B04024643F00100FCF7FD
:103A5000B9FF9DF8060007B05DF804FB14480000AC
:103A60002C4800007C400000C4400000DF470000FC
:103A70007FB5030A01A98DF800300223CDE90413B4
:103A80008DF8010000220D48ADF8042002A9CDF800
:103A900008D00393FEF77AFD50B1094A094B0A4951
:103AA0009B1ADB081B04024643F00100FCF78AFF67
:103AB0009DF8050007B05DF804FB00BF2C4800002E
:103AC0007C400000C4400000DF4700007FB50223B7
:103AD00001A90022CDE904138DF8000002A90D48C8
:103AE0008DF80120ADF80420CDF808D00393FEF73F
:103AF0004DFD50B1084A094B09499B1ADB081B04CC
:103B0000024643F00100FCF75DFF9DF8050007B099
:103B10005DF804FB2C4800007C400000C44000001D
:103B2000DF470000B0EEC00A704700BF00B5014695
:103B300010EE100A00F003F800EE100A00BD4FF07E
:103B40007F43B3EB400F98BF704713EA400207D0A2
:103B5000120E7E3A0A6020EA530040F07C50704713
:103B60000A6000F00040704710EE103AC3F3C750EF
:103B7000002800F08480002B10EE101A23F07F4202
:103B800023DDFF2800F08C80474B994200F28580AE
:103B900042F40002762825D8C0F176001F286ED89E
:103BA000024182FB0213023202EB63029210B2F175
:103BB000404226BF52004FF07A534FF07C534032C0
:103BC00003EBD21300EE103A7047FF285AD0374B60
:103BD00099425FD842F400020029DBD07628C2F176
:103BE0000002D9D9324910B582FB0113C0F1910E00
:103BF00021FA0EF101F1010C5221A0F1710402FB36
:103C000001F1491203FA04F2E24041FA0EF172386E
:103C100002FA00F0C1EB5C01014426489B1A264AD7
:103C200081FB000402EBA402244882FB012400EB88
:103C3000A400234A80FB010443FA0EF302EBA40222
:103C40002048214C82FB012E03F0070C00EBAE0054
:103C500054F82C2080FB0101491081FB0210024422
:103C6000634451004FEAD3035ABF7D3352007E3381
:103C70004032DB0503EBD21300EE103A10BDB7EE75
:103C8000000A7047B2F5000FA1D041F4800300EEA6
:103C9000103A70479FED0D0A70479FED0D0A70476F
:103CA000B2F5000FF1D170471772B1424FACAEC2FE
:103CB000951D555C00B12B00B72A3B0136C21A078F
:103CC00000BEBF1EFC0BB9583848000000000000C1
:103CD0000000807F00B5B5EE400AF1EE10FA83B027
:103CE00060D0B5EEC00AF1EE10FA51D401A8FFF78A
:103CF0001DFFDFED317AB4EEE70AF1EE10FA38DCA1
:103D0000B6EE007A70EE477A019BA7EE877A013B08
:103D1000F0EE476A87EEA60A07EE103A60EE007AE8
:103D20009FED266ADFED265A9FED265ADFED266AC3
:103D3000DFED264A37EEC66AA7EEA55AE7EE866A99
:103D4000DFED235A9FED236AE7EE855AA7EEA66AB8
:103D5000B8EEC77AC5EE866A9FED1F5A66EEA77A5F
:103D6000A0EE270AA7EE240AA7EE050A03B05DF825
:103D700004FBF6EE007AE0EE277A9DED017AF0EE94
:103D8000676AF7EE007A70EE677A87EEA60AC5E7F3
:103D900000F0EEF8114B9FED120A1B68036003B0B0
:103DA0005DF804FB00F0E4F80E4B9FED0D0A1B6874
:103DB000036003B05DF804FBF304353F02AC0E4230
:103DC000AE204ABF5112834120049C4383805EB9D8
:103DD000F93F80C2F55F40C40080313F984A00003F
:103DE000000080FF9C4A0000B7EE007AF4EE470A1C
:103DF000F1EE10FAF0EE407A2ED008B5B5EE400A9A
:103E0000F1EE10FA2DED028BB0EE608A09D1F5EEDD
:103E1000C00AF1EE10FA20D99FED230ABDEC028B07
:103E200008BDFDEEE06A16EE903AF8EEE66AF4EEB2
:103E3000606AF1EE10FA1AD0B5EEC00AF1EE10FA8F
:103E40000BD4FFF76FFEFFF745FF28EE000AFFF7E0
:103E50008BFEBDEC028B08BD704700F089F8BDEC0D
:103E6000028B124B9FED120A1B68036008BD002BEA
:103E700013DB16D0DA07B7EE000A48BF20EE270A98
:103E80005B10CBD067EEA77ADA0748BF20EE270A8F
:103E90005B10F7D1BDEC028B08BDC7EE007A5B4228
:103EA000E8E7B0EE470AB9E700000000984A0000D2
:103EB000000080FF7F2805D8034B185C034B5B5C38
:103EC000184070470020704764480000E448000034
:103ED000A0F16103192B98BF20387047A0F141036E
:103EE000192B98BF203070477F2805D8034B185CEA
:103EF000034B5B5C1840704700207047644800002B
:103F0000E4480000A0F16103192B98BF20387047E6
:103F1000A0F14103192B98BF203070477F299ABF29
:103F2000017001206FF02E0070475AB10A787F2A85
:103F30000AD800B10260002119605960501A18BFF8
:103F400001207047002070476FF02E00704700007E
:103F500008B5034B5B689B681B68984708BD00BFAA
:103F6000CC0F002008B50921FFF7F2FF08BD0000C3
:103F700000B5FCF72DFA024B18445DF804FB00BFB6
:103F800008000000844640EA010313F0030F18D133
:103F90008446202A0BD32DE9F007B1E8F807A0E802
:103FA000F807A2F12002202AF7D2BDE8F007042A80
:103FB00007D351F8043B40F8043BA2F10402042A61
:103FC000F7D2002A05D011F8013B00F8013B013A75
:103FD000F9D160467047024610F0030F16D111F078
:103FE000030F13D12DE9F0004FF001374FF080336C
:103FF00051F8044BA4EB070525EA04051D4002D146
:1040000042F8044BF4E7A1F10401F0BC11F8013BC4
:1040100002F8013B002BF9D1704700F1010110F0CB
:10402000030F11D010F8012B002A23D010F0030F3A
:104030000AD010F8012B002A1CD010F0030F03D077
:1040400010F8012B002A15D02DE970004FF0013235
:104050004FF0803350F8044BA4EB020525EA040529
:104060001D4000D1F6E7A0F1040070BC10F8012B50
:0C407000002AFBD1A0EB0100704700000B
:10407C0044420000000000004A4200000000000022
:10408C004E420000000000006342000000000000EF
:10409C0052420000000000008C42000000000000B2
:1040AC0076420000000000005842000000000000B2
:1040BC005D420000000000003541000000000303D9
:1040CC003E420000000000003542000000000000ED
:1040DC000841000000000000144100000000002016
:1040EC0024100020EC100020F41000202C100020D4
:0440FC0018000000A8
:104100000338FDD870470000DD03000049040000BB
:10411000D90300007274745F6C6F675F6261636BD8
:10412000656E64004261636B656E647320666C75D6
:104130007368656400617070000000001415002051
:104140007F000000941500201B5B313B33316D0074
:1041500025734C6F67732064726F707065642028DC
:1041600025642925730D0A001B5B306D0025730043
:104170003C25733E2025733A2000202530327800FC
:10418000202020007C002563001B5B313B33306D19
:10419000001B5B313B33326D001B5B313B33336DB6
:1041A000001B5B313B33346D001B5B313B33356DA2
:1041B000001B5B313B33366D001B5B313B33376D8E
:1041C000007761726E696E6700696E666F00646584
:1041D00062756700684100008941000048410000A5
:1041E0009141000099410000A1410000A941000057
:1041F000B1410000B941000000000000124200007F
:10420000C1410000C9410000CE4100004661746117
:104210006C206572726F720053797374656D2072D1
:10422000657365740030313233343536373839418F
:1042300042434445467077725F6D676D7400636CEE
:104240006F636B00434C4F434B005050490050523A
:10425000530053414144430055415254005541528B
:1042600054450052544300000000000000000000CC
:104270000338FDD870475457494D0000FFFFFFFF3A
:104280000006FF0000000040000000005350494DB0
:104290000053414144432063616C696272617469F7
:1042A0006F6E20636F6D706C6574652021200D0A40
:1042B0000053414144432073616D706C6520636F0E
:1042C0006E76657273696F6E206661696C65643ABB
:1042D000202564005341414443206E6F7420696E71
:1042E000697469616C697A65642E20536B697070BA
:1042F000696E67205254432073616D706C652E00A7
:10430000504341503034206E6F7420696E69746977
:10431000616C697A65642E20536B697070696E6791
:10432000206D6561737572656D656E74732E0053D3
:10433000616D706C653A20256420282564206D56D7
:10434000290D0A0053414144432063616C69627244
:104350006174696F6E207374617274696E672E2E5A
:104360002E004D61696E20496E6974732E00000045
:1043700000400240240004005465726D696E616C57
:10438000005254540053454747455200000001492C
:10439000324320494E495400493243204572726FDE
:1043A000723A2025640049324320494E4954204343
:1043B0004F4D504C455445000000000000000000E7
:1043C0000338FDD8704700000000000000300040B6
:1043D0000000000001000000494E4954204E565292
:1043E000414D00777269746520636F6E666967205E
:1043F000746F20616464726573733A202564202DA4
:1044000020736B69707065642028434841524745AA
:104410005F50554D502900777269746520636F6E47
:104420006669672061646472657373206E6F7420BF
:10443000696E2072616E6765205B302D36335D3AA0
:104440002025640052656164206E7672616D206182
:10445000646472657373206E6F7420696E2072617C
:104460006E6765205B302D313032335D202D20307A
:104470007825303258005772697465206E76726103
:104480006D2061646472657373206E6F7420696E51
:104490002072616E6765205B302D313032335D20D4
:1044A0002D20307825303258004D69736D6174636A
:1044B00068206174206164647265737320307825AC
:1044C0003034583A204E5652414D3D3078253032E6
:1044D000582C204D6972726F723D307825303258F9
:1044E000004E5652414D2076616C69646174696F6B
:1044F0006E207061737365643A20616C6C20766124
:104500006C756573206D617463682E00307825309A
:104510003858005265616420726573756C7420614F
:10452000646472657373206E6F7420696E207261AB
:104530006E6765205B302D33345D202D203078256B
:104540003032580054455354205043415020434F7B
:104550004E4E454354494F4E00446576696365208D
:10456000776F726B696E6720617420616464726535
:1045700073733A2030782578004932432F535049DD
:104580002077726974652B72656164207465737439
:104590003A2073756363657373004932432F535038
:1045A000492077726974652B726561642074657344
:1045B000743A204661696C65642C20657870656387
:1045C00074656420307831312C20676F7420307826
:1045D0002578004932432F53504920726561642089
:1045E0007465737420656E6400504341503034200C
:1045F0006E6F7420696E697469616C697A65642E86
:1046000020536B697070696E67206D656173757298
:10461000656D656E742064756D6D79206C6F672EA5
:10462000004C6F61642044756D6D79204C6F67207C
:104630004D6561737572656D656E747300496E6961
:104640007469616C697A696E6720504341503034F7
:104650002E2E2E00504F5220686173206265656EC9
:1046600020726573657400436F6E666967206861C8
:1046700073206265656E207772697474656E004E92
:104680005652414D20686173206265656E207265E7
:1046900061640052554E4249543A206F6E20504397
:1046A0004150204E5652414D202D20307825303239
:1046B000580052554E4249543A206F6E204E524691
:1046C000204E5652414D202D203078253032580052
:1046D0004E5652414D20686173206265656E2077A9
:1046E00072697474656E0052554E4249543A206F97
:1046F0006E2050434150204E5652414D2076616C01
:104700006964202D2030782530325800496E697454
:1047100069616C697A65206F7065726174696F6E2A
:1047200020686173206265656E2073656E74005643
:10473000616C696420636F6E6669673A005043413B
:104740005020696E697469616C697A6564005043D0
:1047500041503034206E6F7420696E697469616CE9
:10476000697A65642E20536B697070696E67206D7D
:104770006561737572656D656E74206C6F672E0070
:104780002D0043305F6F7665725F435245463A2095
:10479000257325642E253039640043315F6F7665BB
:1047A000725F435245463A20257325642E253039E1
:1047B000640043325F6F7665725F435245463A202C
:1047C000257325642E2530396400000000000000A8
:1047D0000338FDD8704753504920494E495400537F
:1047E0005049204572726F723A2025640053504937
:1047F000206578616D706C65207374617274656496
:104800002E0053504920494E495420434F4D504C9F
:1048100045544500FFFFFFFF06FF00000000004079
:104820000000000000000000010000000040004007
:10483000000000000100000000000040F2E0CA4556
:1048400029F81B4C556BFF52CD3C412D84CA593180
:10485000333FD135BA31B03A43000000504F53498D
:104860005800000020202020202020202068282818
:104870002828202020202020202020202020202028
:1048800020202020481010101010101010101010B0
:104890001010101084848484848484848484101090
:1048A00010101010108181818181810101010101AD
:1048B00001010101010101010101010101010110D9
:1048C0001010101010828282828282020202020282
:1048D00002020202020202020202020202020210AA
:1048E0001010102000070320041702010857104081
:1048F00080000000584800005C490000704A000039
:1049000053756E004D6F6E005475650057656400F9
:10491000546875004672690053617400000000001D
:104920004A616E00466562004D617200417072001E
:104930004D6179004A756E004A756C0041756700DB
:10494000536570004F6374004E6F760044656300DA
:1049500000000000414D00504D000000944A00004E
:10496000904A0000904A0000904A0000904A0000DF
:10497000904A0000904A0000904A0000904A0000CF
:10498000904A0000FFFFFFFFFFFFFFFFFFFFFFFF59
:10499000FFFF0000D0490000004900000C4A000061
:1049A0002049000054490000B4490000644A000056
:1049B000C0490000256D2F25642F257900000000D7
:1049C00025612025622025652025542025590000D9
:1049D00053756E646179004D6F6E64617900547532
:1049E0006573646179005765646E6573646179000D
:1049F0005468757273646179004672696461790004
:104A00005361747572646179000000004A616E75CB
:104A1000617279004665627275617279004D6172EA
:104A2000636800417072696C004D6179004A756E6F
:104A300065004A756C79004175677573740053653C
:104A40007074656D626572004F63746F62657200A9
:104A50004E6F76656D62657200446563656D626573
:104A60007200000025483A254D3A25530000000009
:104A7000B53E0000D13E0000DD3E0000E93E0000F2
:104A8000053F0000113F00001D3F00002B3F0000CC
:104A9000000000002E0000002100000022000000A5
:104AA00000000000FF0000000090D00300000000A4
:104AB000006400000000FF3F00D8FFFF007D000001
:104AC0000000FF3F000000000000000400000000A4
:104AD00000000004000000000000000000000000D2
:104AE00000000000000000000000000000000000C6
:104AF000000000000000009001002000000000F90C
:104B00000000FFFF00FF00000000000000000002A6
:104B10000000000000000002000000000000000093
:104B2000000058C15700141AF3FEFF00D8007D00A2
:104B30005A005F6E007300000000000000000000DB
:104B40000000000000000019005808B10003040034
:104B50008813000008FF03000000000001503034FB
:104B60000452075A0082292900470000280010003B
:104B7000030A010000000100000000000000000026
:104B8000000000000000002400A001206C425C48EE
:104B9000B302915D7FB00000B101920EB2027820A5
:104BA0006BB60000B700008448202490007F208F5F
:104BB0006AD441FA7AE74354E9441C416AFD4584CA
:104BC0000121486AF2437AE24420CD7AC043E144AD
:104BD00021FCE9E743E9447AC5E143E03A7AC2E1DE
:104BE000437ACEF3E6412C68228B66677677669926
:104BF000FD7B0179C1E1242FD4E743E9447AC5E183
:104C00004349E0347AC2E1437ACFE8E6412C827A24
:104C1000C0E143E03A026AD741AB207AC1D8E6430B
:104C2000E9447ADFFFFFFFFFE3411C43464646327B
:104C300044E9137AC1E0E643E958AAED7AC5E143B5
:104C4000E03A7ACFE3E643F144298ADBC027D4C1B6
:104C5000D8242F026AFD41425C495CAA077AC0440D
:104C6000E344E544027AC1E7436AD633AB06C5C7DD
:104C7000C9226F27007AE345D845C1CAE643E94413
:104C80007AC2E1437ACCF8E6412C3A7AC1E743C1D3
:104C9000CAE641E945D82A52E544D8445848C044B8
:104CA0007AC1D0E6437AE9447AC1E1437ACEC4E6D8
:104CB000412C3A7AC1D8E6437AE9447AF2E7437A5A
:104CC000EA447ACDC8E6412C9CC044D84359027AC4
:104CD0007ACFD7E643F1447AD0E74329F432AB03E5
:104CE000425C92037AC0E143DA2799C1D424486A2E
:104CF000D541C1C07AE652E9451C417AC2E7436A10
:104D0000D633AB06CACCCE226F27007AD845E4450D
:104D1000C1CAE643E9447AC2E1437ACECCE6412CEB
:104D20003A7AC1E743C1CAE641E945D82A52E64486
:104D3000D8445848C1CAE643E9447ACEDCE6412B60
:104D400004D84359C1CAE641E9452AD36AF244F37B
:104D50007AE743E9447AC5E143E03A7AC1E1437A2C
:104D6000CEEFE6412C686AF243F458A80541F245BB
:104D70005AAB08F243F358A90241F2457AC8E1431D
:104D8000E03A027AC1CAE643E9447AC1E1437ACC07
:104D9000E0E6412C3A7AC5E14349E034C1CCE64330
:104DA000E9447AC1E1432C68CC43CF44CD43CE449F
:104DB000C043C1CAE641E9452BC8EE44E7447AC185
:104DC000CAE643E9447AC1E1437ACCECE6412C3AA5
:104DD0007AC1CCE643E9447AC1E1432C68CC43CFA5
:104DE00044CD43CE446AF243C1CA7AE641E9452B39
:104DF000C8ED44E844027AE743C444EC4419191965
:104E000019E743C544EB4419191919E743C644EAA5
:104E100044026AF2417AD0E7436AD633AA027AC0E2
:104E200041426AEA5AA80270920540E95AA9006014
:104E30006AF2417AE0E7436AD633AA027AC0414275
:104E40006AEC5AA80271920540EB5AA9006102006F
:104E5000000000006400000000FF3F00D8FFFF00DA
:104E60007D00000000FF3F00000000000000040083
:104E7000000000000000040000000000000000002E
:104E80000000000000000000000000000000000022
:104E90000000000000000000000090010020000061
:104EA0000000F90000FFFF00FF000000000000000C
:104EB00000000200000000000000020000000000EE
:104EC000000000000058C15700141AF3FEFF00D87C
:104ED000007D005A005F6E007300000000000000BB
:104EE0000000000000000000000027005808B1008A
:104EF000030600C800000108FF03010000000032A3
:104F00005030340452075A008228280047000028F5
:104F1000001000030B010000000100000000000071
:104F200000000000000000000000228AA0012055BF
:104F3000425C48B1079202201302209302B2027829
:104F40002054B30691007F20862054B6037262205D
:104F500054B70000425CA10049B0004940AB5D92EB
:104F60001C90027F208666677677667ACFCDE6430F
:104F7000F14429AA7ADCE74132AA0199FD7B017A42
:104F8000CFEBE643F14429AA7AC1E741326ADE4415
:104F90007ACFEAE643F14429AA6ADF447AC4E741BA
:104FA00032AB057AC1E143E03A7AC0E143E03A022C
:104FB0007ACFE6E643F14429AA7AEF4402209D84A1
:104FC00001212C21702037C87AE74349116AD44463
:104FD0007AC1D8E643E9441C4313AB616ADE41ABB6
:104FE0000B4646467ADFFFFFFFFFE341321C44E9F0
:104FF000136AD41341AADF7AC5E14349E0347ACF7A
:10500000E3E643F144298ADBC027D46ADF437AC848
:10501000E74130AB0186377AC6E7417AFAE743EADF
:10502000447AC1E1E643E94425D17AC6E7417AFAF8
:10503000E743EA447AC0E743E94425D192107AE194
:1050400044E244E344E444E544E644E744E844C13C
:10505000D822C392FF027ACFD7E643F1447AD0E751
:105060004329F432AB03425C92037AC0E143D9276F
:105070007F6ADF437AC8E74132AB0186117AC243C7
:105080007AE7446AC6447AC3437AE8446AC744C1AB
:10509000D422DC7AC8E143E03A027ACFE7E643F172
:1050A0004429AA7AC7E1416AD4455A25274646468B
:1050B000467AE9447AC0E743557AEA457AE9511CD1
:1050C000436ACA441D436ACB447AC1CAE643E944F1
:1050D0007AC1E1437ACCE0E6412C3A7AC5E1434912
:1050E000E0347AC1CCE643E9447AC1E1432C687AE2
:1050F000CC437ACF447ACD437ACE446ACA43C1CAFC
:105100007AE641E9452BC8EE447AC1CAE643E94450
:105110007AC1E1437ACCECE6412C3A7AC5E14349C5
:10512000E0347AC1CCE643E9447AC1E1432C687AA1
:10513000CC437ACF447ACD437ACE446ACB43C1CABA
:105140007AE641E9452BC8ED4402FFFFFFFFFFFF70
:10515000FFFFFFFFFFFFFFFFFFFFFFFFFFFFFFFF5F
:10516000FFFFFFFFFFFFFFFFFFFFFFFFFFFFFFFF4F
:10517000FFFFFFFFFFFFFFFFFFFFFFFFFFFFFFFF3F
:10518000FFFFFFFFFFFFFFFFFFFFFFFFFFFFFFFF2F
:10519000FFFFFFFFFFFFFFFFFFFFFFFFFFFFFFFF1F
:1051A000FFFFFFFFFFFFFFFFFFFFFFFFFFFFFFFF0F
:1051B000FFFFFFFF7AB403C1D8920AB503C1D492AE
:1051C000199F0122ED02E643FB50E944FA43F958E6
:1051D0001C51AD024359577D9AEA01E643FC50E960
:1051E00044FA431C51AD02435957B1ED027AE643EC
:1051F0007AE944405D1C451A451A451A451A451A74
:10520000451A451A45027AE6437AE944405D1C4551
:105210001A451A451A4502C1D422DCC1D822C395C9
:105220000078013F80D81831000FFF1FA0860101D0
:1052300008FF0F00000000000100003404520C5A67
:1052400000810000002F0000280000000000010085
:10525000000001000000000000000000000000004D
:105260000000001D00F81031003F1000D0070000C2
:1052700018FF030024000000015030730450085A46
:10528000008208080047400000007100000800008C
:10529000000001000000000000000000000000000D
:1052A00000000000000000006400000000FF3F005C
:1052B000D8FFFF007D00000000FF3F00000000005D
:1052C00000000400000000000000040000000000D6
:1052D00000000000000000000000000000000000CE
:1052E000000000000000000000000000000090012D
:1052F000002000000000F90000FFFF00FF00000098
:105300000000000000000200000000000000020099
:1053100000000000000000000058C15700141AF3FC
:10532000FEFF00D8007D005A005F6E007300000091
:105330000000000000000000000000000000190054
:105340005810B1000304008813000008FF03000098
:10535000000000015030730450075A0082292900D0
:1053600047400000001000030A0000000001000098
:105370000000000000000000000000000000240504
:10538000A001206C425C48B302915D7FB00000B187
:1053900001920EB20278206BB60000B7000084487C
:1053A000202490007F208F6AD441FA7AE74354E9A1
:1053B000441C416AFD45840121446AF2437AE24477
:1053C00020CD7AC043E14421F4E9E743E9447AC5BA
:1053D000E143E03A7AC2E1437ACEF3E6412C70220F
:1053E00067666776776699FD7B0179C1E1243ED4D3
:1053F000E743E9447AC5E14349E0347AC2E1437ABC
:10540000CFE8E6412C8A7AC0E143E03A026AD7410C
:10541000AB207AC1D8E643E9447ADFFFFFFFFFE320
:10542000411C434646463244E9137AC1E0E643E96B
:1054300058AAED7AC5E143E03A7ACFE3E643F14476
:1054400029E0DBC027E5C1D8243E026AFD41425C69
:10545000495CAA077AC044E344E544027AC1E743C1
:105460006AD633AB04C5C7C9270C7AE345D845C112
:10547000CAE643E9447AC2E1437ACCF8E6412C42D9
:105480007AC1E743C1CAE641E945D82A88E544D84C
:1054900044C0447AC1D0E6437AE9447AC1E1437A10
:1054A000CEC4E6412C427AC1D8E6437AE9447AF286
:1054B000E7437AEA447ACDC8E6412CA4C044D843F5
:1054C00059027A7ACFD7E643F1447AD0E7432A2AC1
:1054D00032AB03425C92037AC0E143DA27AAC1D41B
:1054E00024576AD541C1C07AE652E9451C417AC2C7
:1054F000E7436AD633AB04CACCCE270C7AD845E44E
:1055000045C1CAE643E9447AC2E1437ACECCE641DA
:105510002C427AC1E743C1CAE641E945D82A88E668
:1055200044D844C1CAE643E9447ACEDCE6412B3A8A
:10553000D84359C1CAE641E9452B096AF244F37AD6
:10554000E743E9447AC5E143E03A7AC1E1437ACEE0
:10555000EFE6412C706AF243F458A80541F2455A2F
:10556000AB08F243F358A90241F2457AC8E143E09F
:105570003A027AC1CAE643E9447AC1E1437ACCE00F
:10558000E6412C427AC5E14349E034C1CCE643E927
:10559000447AC1E1432C70CC43CF44CD43CE44C0C8
:1055A00043C1CAE641E9452BAEEE44E7447AC1CA9D
:1055B000E643E9447AC1E1437ACCECE6412C427AF5
:1055C000C1CCE643E9447AC1E1432C70CC43CF44DB
:1055D000CD43CE446AF243C1CA7AE641E9452BAED7
:1055E000ED44E844026AF2417AD0E7436AD633AA2E
:1055F000027AC041426AEA5AA80270920540E95A0A
:10560000A900606AF2417AE0E7436AD633AA027AD7
:10561000C041426AEC5AA80271920540EB5AA900B7
:10562000610200000000006400000000FF3F00D89D
:10563000FFFF007D00000000FF3F000000000000B1
:105640000004000000000000000400000000000052
:10565000000000000000000000000000000000004A
:1056600000000000000000000000000000900100A9
:105670002000000000F90000FFFF00FF0000000014
:105680000000000000020000000000000002000016
:10569000000000000000000058C15700141AF3FE7B
:1056A000FF00D8007D005A005F6E0073000000000C
:1056B000000000000000000000000000002700586B
:1056C00010B100030600C800000108FF030100003C
:1056D0000000325030730450075A008228280047D7
:1056E000400000001000030B00000000010000005B
:1056F000000000000000000000000000002405A0E1
:10570000012055425C48B107920220130220930207
:10571000B202782054B30691007F20862054B6034D
:1057200072622054B70000425CA10049B0004940B9
:10573000AB5D921C90027F208666677677667ACF93
:10574000CDE643F14429E07ADCE74132AA0199FD34
:105750007B017ACFEBE643F14429E07AC1E741329D
:105760006ADE447ACFEAE643F14429E06ADF447A0C
:10577000C4E74132AB057AC1E143E03A7AC0E14384
:10578000E03A027ACFE6E643F14429E07AEF4402B8
:10579000209D8401212E21742037C87AE7434911C6
:1057A0006AD4447AC1D8E643E9441C4313AB636A24
:1057B000DE41AB0B4646467ADFFFFFFFFFE3413297
:1057C0001C44E9136AD41341AADF7AC5E14349E0D6
:1057D000347ACFE3E643F14429E0DBC027E56ADF12
:1057E000437AC8E74130AB03860192377AC6E74176
:1057F0007AFAE743EA447AC1E1E643E94425E07AEC
:10580000C6E7417AFAE743EA447AC0E743E9442528
:10581000E092107AE144E244E344E444E544E6449F
:10582000E744E844C1D8243E92FF027ACFD7E6434A
:10583000F1447AD0E7432A2A32AB03425C92037ADE
:10584000C0E143D927906ADF437AC8E74132AB030E
:10585000860192117AC2437AE7446AC6447AC34306
:105860007AE8446AC744C1D424577AC8E143E03A8D
:10587000027ACFE7E643F14429E07AC7E1416AD4EE
:10588000455A2536464646467AE9447AC0E74355A6
:105890007AEA457AE9511C436ACA441D436ACB44FB
:1058A0007AC1CAE643E9447AC1E1437ACCE0E641F1
:1058B0002C427AC5E14349E0347AC1CCE643E9445D
:1058C0007AC1E1432C707ACC437ACF447ACD437AC3
:1058D000CE446ACA43C1CA7AE641E9452BAEEE44DA
:1058E0007AC1CAE643E9447AC1E1437ACCECE641A5
:1058F0002C427AC5E14349E0347AC1CCE643E9441D
:105900007AC1E1432C707ACC437ACF447ACD437A82
:10591000CE446ACB43C1CA7AE641E9452BAEED4499
:105920000200000000000000000000000000000075
:10593000008C8D8A9C9996880000200000408E0083
:10594000000000C10000803F00000000000000C116
:105950000000803F000000000000D8C10000803F30
:10596000000000000000D0C10000803F00000000E7
:105970000000D0C10000803F000000000000C8C14E
:105980000000803F00000000000000000000803F99
:1059900000000000000000000000803F0000000048
:1059A000000080C10000803F00000000000000C136
:1059B0000000803F000000000000D8C10000803FD0
:1059C000000000000000D0C10000803F0000000087
:1059D0000000D0C10000803F000000000000C8C1EE
:1059E0000000803F00000000000000000000803F39
:1059F00000000000000000000000803F00000000E8
:105A00000000D8C10000C842000000000000D8C15A
:105A10000000C842000000BF0000D8C10000C8421A
:105A2000000000BF0000D8C10000C8420000000014
:105A30000000D8C10000C842000000000000D8C12A
:105A40000000C842000000000000C8C10000204162
:105A5000000000000000C8C100002041000000005C
:105A6000117E000000C0A3000000A000F448000068
:105A7000F4480000F4480000F4480000F448000036
:040000030000037581
:00000001FF
